{
  "contracts/CPPayPaymaster.sol": {
    "CPPayPaymaster": {
      "abi": [
        {
          "inputs": [
            {
              "internalType": "contract IEntryPoint",
              "name": "_entryPoint",
              "type": "address"
            }
          ],
          "stateMutability": "nonpayable",
          "type": "constructor"
        },
        {
          "anonymous": false,
          "inputs": [
            {
              "indexed": true,
              "internalType": "address",
              "name": "user",
              "type": "address"
            }
          ],
          "name": "DailyLimitReset",
          "type": "event"
        },
        {
          "anonymous": false,
          "inputs": [
            {
              "indexed": true,
              "internalType": "address",
              "name": "user",
              "type": "address"
            },
            {
              "indexed": false,
              "internalType": "uint256",
              "name": "gasAmount",
              "type": "uint256"
            },
            {
              "indexed": false,
              "internalType": "uint256",
              "name": "remainingDaily",
              "type": "uint256"
            }
          ],
          "name": "GasSponsored",
          "type": "event"
        },
        {
          "anonymous": false,
          "inputs": [
            {
              "indexed": true,
              "internalType": "address",
              "name": "previousOwner",
              "type": "address"
            },
            {
              "indexed": true,
              "internalType": "address",
              "name": "newOwner",
              "type": "address"
            }
          ],
          "name": "OwnershipTransferred",
          "type": "event"
        },
        {
          "anonymous": false,
          "inputs": [
            {
              "indexed": false,
              "internalType": "bool",
              "name": "active",
              "type": "bool"
            }
          ],
          "name": "PaymasterToggled",
          "type": "event"
        },
        {
          "anonymous": false,
          "inputs": [
            {
              "indexed": true,
              "internalType": "address",
              "name": "user",
              "type": "address"
            }
          ],
          "name": "UserVerified",
          "type": "event"
        },
        {
          "inputs": [],
          "name": "DAILY_GAS_LIMIT",
          "outputs": [
            {
              "internalType": "uint256",
              "name": "",
              "type": "uint256"
            }
          ],
          "stateMutability": "view",
          "type": "function"
        },
        {
          "inputs": [],
          "name": "ONE_DAY",
          "outputs": [
            {
              "internalType": "uint256",
              "name": "",
              "type": "uint256"
            }
          ],
          "stateMutability": "view",
          "type": "function"
        },
        {
          "inputs": [
            {
              "internalType": "uint32",
              "name": "unstakeDelaySec",
              "type": "uint32"
            }
          ],
          "name": "addStake",
          "outputs": [],
          "stateMutability": "payable",
          "type": "function"
        },
        {
          "inputs": [],
          "name": "deposit",
          "outputs": [],
          "stateMutability": "payable",
          "type": "function"
        },
        {
          "inputs": [],
          "name": "entryPoint",
          "outputs": [
            {
              "internalType": "contract IEntryPoint",
              "name": "",
              "type": "address"
            }
          ],
          "stateMutability": "view",
          "type": "function"
        },
        {
          "inputs": [],
          "name": "getDeposit",
          "outputs": [
            {
              "internalType": "uint256",
              "name": "",
              "type": "uint256"
            }
          ],
          "stateMutability": "view",
          "type": "function"
        },
        {
          "inputs": [
            {
              "internalType": "address",
              "name": "user",
              "type": "address"
            }
          ],
          "name": "getRemainingDailyGas",
          "outputs": [
            {
              "internalType": "uint256",
              "name": "",
              "type": "uint256"
            }
          ],
          "stateMutability": "view",
          "type": "function"
        },
        {
          "inputs": [],
          "name": "owner",
          "outputs": [
            {
              "internalType": "address",
              "name": "",
              "type": "address"
            }
          ],
          "stateMutability": "view",
          "type": "function"
        },
        {
          "inputs": [],
          "name": "paymasterActive",
          "outputs": [
            {
              "internalType": "bool",
              "name": "",
              "type": "bool"
            }
          ],
          "stateMutability": "view",
          "type": "function"
        },
        {
          "inputs": [],
          "name": "paymasterDeposit",
          "outputs": [
            {
              "internalType": "uint256",
              "name": "",
              "type": "uint256"
            }
          ],
          "stateMutability": "view",
          "type": "function"
        },
        {
          "inputs": [
            {
              "internalType": "enum IPaymaster.PostOpMode",
              "name": "mode",
              "type": "uint8"
            },
            {
              "internalType": "bytes",
              "name": "context",
              "type": "bytes"
            },
            {
              "internalType": "uint256",
              "name": "actualGasCost",
              "type": "uint256"
            }
          ],
          "name": "postOp",
          "outputs": [],
          "stateMutability": "nonpayable",
          "type": "function"
        },
        {
          "inputs": [],
          "name": "renounceOwnership",
          "outputs": [],
          "stateMutability": "nonpayable",
          "type": "function"
        },
        {
          "inputs": [
            {
              "internalType": "bool",
              "name": "active",
              "type": "bool"
            }
          ],
          "name": "togglePaymaster",
          "outputs": [],
          "stateMutability": "nonpayable",
          "type": "function"
        },
        {
          "inputs": [
            {
              "internalType": "address",
              "name": "newOwner",
              "type": "address"
            }
          ],
          "name": "transferOwnership",
          "outputs": [],
          "stateMutability": "nonpayable",
          "type": "function"
        },
        {
          "inputs": [],
          "name": "unlockStake",
          "outputs": [],
          "stateMutability": "nonpayable",
          "type": "function"
        },
        {
          "inputs": [
            {
              "internalType": "address",
              "name": "",
              "type": "address"
            }
          ],
          "name": "userGasData",
          "outputs": [
            {
              "internalType": "uint256",
              "name": "gasUsedToday",
              "type": "uint256"
            },
            {
              "internalType": "uint256",
              "name": "lastResetTime",
              "type": "uint256"
            },
            {
              "internalType": "bool",
              "name": "isVerified",
              "type": "bool"
            }
          ],
          "stateMutability": "view",
          "type": "function"
        },
        {
          "inputs": [
            {
              "components": [
                {
                  "internalType": "address",
                  "name": "sender",
                  "type": "address"
                },
                {
                  "internalType": "uint256",
                  "name": "nonce",
                  "type": "uint256"
                },
                {
                  "internalType": "bytes",
                  "name": "initCode",
                  "type": "bytes"
                },
                {
                  "internalType": "bytes",
                  "name": "callData",
                  "type": "bytes"
                },
                {
                  "internalType": "uint256",
                  "name": "callGasLimit",
                  "type": "uint256"
                },
                {
                  "internalType": "uint256",
                  "name": "verificationGasLimit",
                  "type": "uint256"
                },
                {
                  "internalType": "uint256",
                  "name": "preVerificationGas",
                  "type": "uint256"
                },
                {
                  "internalType": "uint256",
                  "name": "maxFeePerGas",
                  "type": "uint256"
                },
                {
                  "internalType": "uint256",
                  "name": "maxPriorityFeePerGas",
                  "type": "uint256"
                },
                {
                  "internalType": "bytes",
                  "name": "paymasterAndData",
                  "type": "bytes"
                },
                {
                  "internalType": "bytes",
                  "name": "signature",
                  "type": "bytes"
                }
              ],
              "internalType": "struct UserOperation",
              "name": "userOp",
              "type": "tuple"
            },
            {
              "internalType": "bytes32",
              "name": "userOpHash",
              "type": "bytes32"
            },
            {
              "internalType": "uint256",
              "name": "maxCost",
              "type": "uint256"
            }
          ],
          "name": "validatePaymasterUserOp",
          "outputs": [
            {
              "internalType": "bytes",
              "name": "context",
              "type": "bytes"
            },
            {
              "internalType": "uint256",
              "name": "validationData",
              "type": "uint256"
            }
          ],
          "stateMutability": "nonpayable",
          "type": "function"
        },
        {
          "inputs": [],
          "name": "verifiedUserMultiplier",
          "outputs": [
            {
              "internalType": "uint256",
              "name": "",
              "type": "uint256"
            }
          ],
          "stateMutability": "view",
          "type": "function"
        },
        {
          "inputs": [
            {
              "internalType": "address",
              "name": "user",
              "type": "address"
            }
          ],
          "name": "verifyUser",
          "outputs": [],
          "stateMutability": "nonpayable",
          "type": "function"
        },
        {
          "inputs": [
            {
              "internalType": "address payable",
              "name": "withdrawAddress",
              "type": "address"
            }
          ],
          "name": "withdrawStake",
          "outputs": [],
          "stateMutability": "nonpayable",
          "type": "function"
        },
        {
          "inputs": [
            {
              "internalType": "address payable",
              "name": "withdrawAddress",
              "type": "address"
            },
            {
              "internalType": "uint256",
              "name": "amount",
              "type": "uint256"
            }
          ],
          "name": "withdrawTo",
          "outputs": [],
          "stateMutability": "nonpayable",
          "type": "function"
        }
      ],
      "evm": {
        "bytecode": {
          "linkReferences": {},
          "object": "60a060405260026003556004805460ff1916600117905534801561002257600080fd5b50604051611255380380611255833981016040819052610041916100b1565b8061004b33610061565b6001600160a01b031660805250600180556100e1565b600080546001600160a01b038381166001600160a01b0319831681178455604051919092169283917f8be0079c531659141344cd1fd0a4f28419497f9722a3daafe3b4186f6b6457e09190a35050565b6000602082840312156100c357600080fd5b81516001600160a01b03811681146100da57600080fd5b9392505050565b6080516111216101346000396000818161028e01528181610417015281816104ae015281816105e80152818161074a015281816107de01528181610855015281816108e20152610a8501526111216000f3fe60806040526004361061012a5760003560e01c8063a9a23409116100ab578063c23a5cea1161006f578063c23a5cea1461030f578063c399ec881461032f578063d049ef0014610344578063d0e30db01461039f578063f2fde38b146103a7578063f465c77e146103c757600080fd5b8063a9a234091461025c578063b0d691fe1461027c578063b2757b64146102b0578063bb9fe6bf146102d0578063bd90ff13146102e557600080fd5b806337d0b0af116100f257806337d0b0af146101c95780634d813120146101de578063715018a6146101fe578063863e76db146102135780638da5cb5b1461022a57600080fd5b80630396cb601461012f5780630ea9904c146101445780631e5a625914610173578063205c2878146101895780632ad59123146101a9575b600080fd5b61014261013d366004610db2565b6103f5565b005b34801561015057600080fd5b50610160670de0b6b3a764000081565b6040519081526020015b60405180910390f35b34801561017f57600080fd5b5061016060035481565b34801561019557600080fd5b506101426101a4366004610de4565b610480565b3480156101b557600080fd5b506101606101c4366004610e10565b6104f2565b3480156101d557600080fd5b506101606105d0565b3480156101ea57600080fd5b506101426101f9366004610e10565b61066a565b34801561020a57600080fd5b506101426106c3565b34801561021f57600080fd5b506101606201518081565b34801561023657600080fd5b506000546001600160a01b03165b6040516001600160a01b03909116815260200161016a565b34801561026857600080fd5b50610142610277366004610e2d565b6106d7565b34801561028857600080fd5b506102447f000000000000000000000000000000000000000000000000000000000000000081565b3480156102bc57600080fd5b506101426102cb366004610ecd565b6106f1565b3480156102dc57600080fd5b50610142610740565b3480156102f157600080fd5b506004546102ff9060ff1681565b604051901515815260200161016a565b34801561031b57600080fd5b5061014261032a366004610e10565b6107b7565b34801561033b57600080fd5b5061016061083d565b34801561035057600080fd5b5061038261035f366004610e10565b600260208190526000918252604090912080546001820154919092015460ff1683565b60408051938452602084019290925215159082015260600161016a565b6101426108cd565b3480156103b357600080fd5b506101426103c2366004610e10565b61092f565b3480156103d357600080fd5b506103e76103e2366004610eea565b6109ad565b60405161016a929190610f3e565b6103fd6109d0565b604051621cb65b60e51b815263ffffffff821660048201527f00000000000000000000000000000000000000000000000000000000000000006001600160a01b031690630396cb609034906024016000604051808303818588803b15801561046457600080fd5b505af1158015610478573d6000803e3d6000fd5b505050505050565b6104886109d0565b60405163040b850f60e31b81526001600160a01b038381166004830152602482018390527f0000000000000000000000000000000000000000000000000000000000000000169063205c287890604401600060405180830381600087803b15801561046457600080fd5b6001600160a01b0381166000908152600260208181526040808420815160608101835281548152600182015493810184905293015460ff1615159083015261053e906201518090610fa9565b421061057757806040015161055b57670de0b6b3a7640000610570565b60035461057090670de0b6b3a7640000610fc2565b9392505050565b6000816040015161059057670de0b6b3a76400006105a5565b6003546105a590670de0b6b3a7640000610fc2565b9050808260000151106105bc575060009392505050565b81516105c89082610fd9565b949350505050565b604051632943e70960e11b81523060048201526000907f00000000000000000000000000000000000000000000000000000000000000006001600160a01b031690635287ce129060240160a060405180830381865afa158015610637573d6000803e3d6000fd5b505050506040513d601f19601f8201168201806040525081019061065b9190611034565b516001600160701b0316919050565b6106726109d0565b6001600160a01b0381166000818152600260208190526040808320909101805460ff19166001179055517fa6625d2d26e786e2f473111bea4b2fcdbbf1863d883a2359989ce3a103d2972a9190a250565b6106cb6109d0565b6106d56000610a2a565b565b6106df610a7a565b6106eb84848484610aea565b50505050565b6106f96109d0565b6004805460ff19168215159081179091556040519081527f12b63397b781e528e1d69c47d9b4ae364834a17e6dffc73cc6881c79fcdfdd4e9060200160405180910390a150565b6107486109d0565b7f00000000000000000000000000000000000000000000000000000000000000006001600160a01b031663bb9fe6bf6040518163ffffffff1660e01b8152600401600060405180830381600087803b1580156107a357600080fd5b505af11580156106eb573d6000803e3d6000fd5b6107bf6109d0565b60405163611d2e7560e11b81526001600160a01b0382811660048301527f0000000000000000000000000000000000000000000000000000000000000000169063c23a5cea90602401600060405180830381600087803b15801561082257600080fd5b505af1158015610836573d6000803e3d6000fd5b5050505050565b6040516370a0823160e01b81523060048201526000907f00000000000000000000000000000000000000000000000000000000000000006001600160a01b0316906370a0823190602401602060405180830381865afa1580156108a4573d6000803e3d6000fd5b505050506040513d601f19601f820116820180604052508101906108c891906110d2565b905090565b60405163b760faf960e01b81523060048201527f00000000000000000000000000000000000000000000000000000000000000006001600160a01b03169063b760faf99034906024016000604051808303818588803b15801561082257600080fd5b6109376109d0565b6001600160a01b0381166109a15760405162461bcd60e51b815260206004820152602660248201527f4f776e61626c653a206e6577206f776e657220697320746865207a65726f206160448201526564647265737360d01b60648201526084015b60405180910390fd5b6109aa81610a2a565b50565b606060006109b9610a7a565b6109c4858585610bb7565b91509150935093915050565b6000546001600160a01b031633146106d55760405162461bcd60e51b815260206004820181905260248201527f4f776e61626c653a2063616c6c6572206973206e6f7420746865206f776e65726044820152606401610998565b600080546001600160a01b038381166001600160a01b0319831681178455604051919092169283917f8be0079c531659141344cd1fd0a4f28419497f9722a3daafe3b4186f6b6457e09190a35050565b336001600160a01b037f000000000000000000000000000000000000000000000000000000000000000016146106d55760405162461bcd60e51b815260206004820152601560248201527414d95b99195c881b9bdd08115b9d1c9e541bda5b9d605a1b6044820152606401610998565b600080610af984860186610de4565b6001600160a01b03821660009081526002602052604081208054939550919350909185918391610b2a908490610fa9565b90915550506002810154670de0b6b3a76400009060ff1615610b5657600354610b539082610fc2565b90505b8154600090610b659083610fd9565b60408051888152602081018390529192506001600160a01b038716917fb3d8da13e2eec10930982ae94cc39cd56a1e686b864a50f632765647bdfe622b910160405180910390a2505050505050505050565b60045460609060009060ff16610c045760405162461bcd60e51b81526020600482015260126024820152715061796d617374657220696e61637469766560701b6044820152606401610998565b6000610c136020870187610e10565b6001600160a01b0381166000908152600260205260409020600181015491925090610c42906201518090610fa9565b4210610c855760008082554260018301556040516001600160a01b038416917fac87fc0faf18aabee41a3ff0d626ce20d51e373e68e2054f991fce5bd7664d8991a25b6002810154670de0b6b3a76400009060ff1615610cac57600354610ca99082610fc2565b90505b8154600090610cbb9083610fd9565b905086811015610d0d5760405162461bcd60e51b815260206004820152601860248201527f4461696c7920676173206c696d697420657863656564656400000000000000006044820152606401610998565b86610d166105d0565b1015610d645760405162461bcd60e51b815260206004820152601960248201527f5061796d6173746572206465706f73697420746f6f206c6f77000000000000006044820152606401610998565b604080516001600160a01b038616602082015290810188905260600160408051808303601f190181529190529960009950975050505050505050565b63ffffffff811681146109aa57600080fd5b600060208284031215610dc457600080fd5b813561057081610da0565b6001600160a01b03811681146109aa57600080fd5b60008060408385031215610df757600080fd5b8235610e0281610dcf565b946020939093013593505050565b600060208284031215610e2257600080fd5b813561057081610dcf565b60008060008060608587031215610e4357600080fd5b843560038110610e5257600080fd5b9350602085013567ffffffffffffffff811115610e6e57600080fd5b8501601f81018713610e7f57600080fd5b803567ffffffffffffffff811115610e9657600080fd5b876020828401011115610ea857600080fd5b949760209190910196509394604001359392505050565b80151581146109aa57600080fd5b600060208284031215610edf57600080fd5b813561057081610ebf565b600080600060608486031215610eff57600080fd5b833567ffffffffffffffff811115610f1657600080fd5b84016101608187031215610f2957600080fd5b95602085013595506040909401359392505050565b604081526000835180604084015260005b81811015610f6c5760208187018101516060868401015201610f4f565b506000606082850101526060601f19601f8301168401019150508260208301529392505050565b634e487b7160e01b600052601160045260246000fd5b80820180821115610fbc57610fbc610f93565b92915050565b8082028115828204841417610fbc57610fbc610f93565b81810381811115610fbc57610fbc610f93565b80516001600160701b038116811461100357600080fd5b919050565b805161100381610ebf565b805161100381610da0565b805165ffffffffffff8116811461100357600080fd5b600060a082840312801561104757600080fd5b5060405160a0810167ffffffffffffffff8111828210171561107957634e487b7160e01b600052604160045260246000fd5b60405261108583610fec565b815261109360208401611008565b60208201526110a460408401610fec565b60408201526110b560608401611013565b60608201526110c66080840161101e565b60808201529392505050565b6000602082840312156110e457600080fd5b505191905056fea26469706673582212209437a01c4c550db276139717cd1691fa9e784d1a7ca24918ea6876fa4e143c3264736f6c634300081c0033",
          "opcodes": "PUSH1 0xA0 PUSH1 0x40 MSTORE PUSH1 0x2 PUSH1 0x3 SSTORE PUSH1 0x4 DUP1 SLOAD PUSH1 0xFF NOT AND PUSH1 0x1 OR SWAP1 SSTORE CALLVALUE DUP1 ISZERO PUSH2 0x22 JUMPI PUSH1 0x0 DUP1 REVERT JUMPDEST POP PUSH1 0x40 MLOAD PUSH2 0x1255 CODESIZE SUB DUP1 PUSH2 0x1255 DUP4 CODECOPY DUP2 ADD PUSH1 0x40 DUP2 SWAP1 MSTORE PUSH2 0x41 SWAP2 PUSH2 0xB1 JUMP JUMPDEST DUP1 PUSH2 0x4B CALLER PUSH2 0x61 JUMP JUMPDEST PUSH1 0x1 PUSH1 0x1 PUSH1 0xA0 SHL SUB AND PUSH1 0x80 MSTORE POP PUSH1 0x1 DUP1 SSTORE PUSH2 0xE1 JUMP JUMPDEST PUSH1 0x0 DUP1 SLOAD PUSH1 0x1 PUSH1 0x1 PUSH1 0xA0 SHL SUB DUP4 DUP2 AND PUSH1 0x1 PUSH1 0x1 PUSH1 0xA0 SHL SUB NOT DUP4 AND DUP2 OR DUP5 SSTORE PUSH1 0x40 MLOAD SWAP2 SWAP1 SWAP3 AND SWAP3 DUP4 SWAP2 PUSH32 0x8BE0079C531659141344CD1FD0A4F28419497F9722A3DAAFE3B4186F6B6457E0 SWAP2 SWAP1 LOG3 POP POP JUMP JUMPDEST PUSH1 0x0 PUSH1 0x20 DUP3 DUP5 SUB SLT ISZERO PUSH2 0xC3 JUMPI PUSH1 0x0 DUP1 REVERT JUMPDEST DUP2 MLOAD PUSH1 0x1 PUSH1 0x1 PUSH1 0xA0 SHL SUB DUP2 AND DUP2 EQ PUSH2 0xDA JUMPI PUSH1 0x0 DUP1 REVERT JUMPDEST SWAP4 SWAP3 POP POP POP JUMP JUMPDEST PUSH1 0x80 MLOAD PUSH2 0x1121 PUSH2 0x134 PUSH1 0x0 CODECOPY PUSH1 0x0 DUP2 DUP2 PUSH2 0x28E ADD MSTORE DUP2 DUP2 PUSH2 0x417 ADD MSTORE DUP2 DUP2 PUSH2 0x4AE ADD MSTORE DUP2 DUP2 PUSH2 0x5E8 ADD MSTORE DUP2 DUP2 PUSH2 0x74A ADD MSTORE DUP2 DUP2 PUSH2 0x7DE ADD MSTORE DUP2 DUP2 PUSH2 0x855 ADD MSTORE DUP2 DUP2 PUSH2 0x8E2 ADD MSTORE PUSH2 0xA85 ADD MSTORE PUSH2 0x1121 PUSH1 0x0 RETURN INVALID PUSH1 0x80 PUSH1 0x40 MSTORE PUSH1 0x4 CALLDATASIZE LT PUSH2 0x12A JUMPI PUSH1 0x0 CALLDATALOAD PUSH1 0xE0 SHR DUP1 PUSH4 0xA9A23409 GT PUSH2 0xAB JUMPI DUP1 PUSH4 0xC23A5CEA GT PUSH2 0x6F JUMPI DUP1 PUSH4 0xC23A5CEA EQ PUSH2 0x30F JUMPI DUP1 PUSH4 0xC399EC88 EQ PUSH2 0x32F JUMPI DUP1 PUSH4 0xD049EF00 EQ PUSH2 0x344 JUMPI DUP1 PUSH4 0xD0E30DB0 EQ PUSH2 0x39F JUMPI DUP1 PUSH4 0xF2FDE38B EQ PUSH2 0x3A7 JUMPI DUP1 PUSH4 0xF465C77E EQ PUSH2 0x3C7 JUMPI PUSH1 0x0 DUP1 REVERT JUMPDEST DUP1 PUSH4 0xA9A23409 EQ PUSH2 0x25C JUMPI DUP1 PUSH4 0xB0D691FE EQ PUSH2 0x27C JUMPI DUP1 PUSH4 0xB2757B64 EQ PUSH2 0x2B0 JUMPI DUP1 PUSH4 0xBB9FE6BF EQ PUSH2 0x2D0 JUMPI DUP1 PUSH4 0xBD90FF13 EQ PUSH2 0x2E5 JUMPI PUSH1 0x0 DUP1 REVERT JUMPDEST DUP1 PUSH4 0x37D0B0AF GT PUSH2 0xF2 JUMPI DUP1 PUSH4 0x37D0B0AF EQ PUSH2 0x1C9 JUMPI DUP1 PUSH4 0x4D813120 EQ PUSH2 0x1DE JUMPI DUP1 PUSH4 0x715018A6 EQ PUSH2 0x1FE JUMPI DUP1 PUSH4 0x863E76DB EQ PUSH2 0x213 JUMPI DUP1 PUSH4 0x8DA5CB5B EQ PUSH2 0x22A JUMPI PUSH1 0x0 DUP1 REVERT JUMPDEST DUP1 PUSH4 0x396CB60 EQ PUSH2 0x12F JUMPI DUP1 PUSH4 0xEA9904C EQ PUSH2 0x144 JUMPI DUP1 PUSH4 0x1E5A6259 EQ PUSH2 0x173 JUMPI DUP1 PUSH4 0x205C2878 EQ PUSH2 0x189 JUMPI DUP1 PUSH4 0x2AD59123 EQ PUSH2 0x1A9 JUMPI JUMPDEST PUSH1 0x0 DUP1 REVERT JUMPDEST PUSH2 0x142 PUSH2 0x13D CALLDATASIZE PUSH1 0x4 PUSH2 0xDB2 JUMP JUMPDEST PUSH2 0x3F5 JUMP JUMPDEST STOP JUMPDEST CALLVALUE DUP1 ISZERO PUSH2 0x150 JUMPI PUSH1 0x0 DUP1 REVERT JUMPDEST POP PUSH2 0x160 PUSH8 0xDE0B6B3A7640000 DUP2 JUMP JUMPDEST PUSH1 0x40 MLOAD SWAP1 DUP2 MSTORE PUSH1 0x20 ADD JUMPDEST PUSH1 0x40 MLOAD DUP1 SWAP2 SUB SWAP1 RETURN JUMPDEST CALLVALUE DUP1 ISZERO PUSH2 0x17F JUMPI PUSH1 0x0 DUP1 REVERT JUMPDEST POP PUSH2 0x160 PUSH1 0x3 SLOAD DUP2 JUMP JUMPDEST CALLVALUE DUP1 ISZERO PUSH2 0x195 JUMPI PUSH1 0x0 DUP1 REVERT JUMPDEST POP PUSH2 0x142 PUSH2 0x1A4 CALLDATASIZE PUSH1 0x4 PUSH2 0xDE4 JUMP JUMPDEST PUSH2 0x480 JUMP JUMPDEST CALLVALUE DUP1 ISZERO PUSH2 0x1B5 JUMPI PUSH1 0x0 DUP1 REVERT JUMPDEST POP PUSH2 0x160 PUSH2 0x1C4 CALLDATASIZE PUSH1 0x4 PUSH2 0xE10 JUMP JUMPDEST PUSH2 0x4F2 JUMP JUMPDEST CALLVALUE DUP1 ISZERO PUSH2 0x1D5 JUMPI PUSH1 0x0 DUP1 REVERT JUMPDEST POP PUSH2 0x160 PUSH2 0x5D0 JUMP JUMPDEST CALLVALUE DUP1 ISZERO PUSH2 0x1EA JUMPI PUSH1 0x0 DUP1 REVERT JUMPDEST POP PUSH2 0x142 PUSH2 0x1F9 CALLDATASIZE PUSH1 0x4 PUSH2 0xE10 JUMP JUMPDEST PUSH2 0x66A JUMP JUMPDEST CALLVALUE DUP1 ISZERO PUSH2 0x20A JUMPI PUSH1 0x0 DUP1 REVERT JUMPDEST POP PUSH2 0x142 PUSH2 0x6C3 JUMP JUMPDEST CALLVALUE DUP1 ISZERO PUSH2 0x21F JUMPI PUSH1 0x0 DUP1 REVERT JUMPDEST POP PUSH2 0x160 PUSH3 0x15180 DUP2 JUMP JUMPDEST CALLVALUE DUP1 ISZERO PUSH2 0x236 JUMPI PUSH1 0x0 DUP1 REVERT JUMPDEST POP PUSH1 0x0 SLOAD PUSH1 0x1 PUSH1 0x1 PUSH1 0xA0 SHL SUB AND JUMPDEST PUSH1 0x40 MLOAD PUSH1 0x1 PUSH1 0x1 PUSH1 0xA0 SHL SUB SWAP1 SWAP2 AND DUP2 MSTORE PUSH1 0x20 ADD PUSH2 0x16A JUMP JUMPDEST CALLVALUE DUP1 ISZERO PUSH2 0x268 JUMPI PUSH1 0x0 DUP1 REVERT JUMPDEST POP PUSH2 0x142 PUSH2 0x277 CALLDATASIZE PUSH1 0x4 PUSH2 0xE2D JUMP JUMPDEST PUSH2 0x6D7 JUMP JUMPDEST CALLVALUE DUP1 ISZERO PUSH2 0x288 JUMPI PUSH1 0x0 DUP1 REVERT JUMPDEST POP PUSH2 0x244 PUSH32 0x0 DUP2 JUMP JUMPDEST CALLVALUE DUP1 ISZERO PUSH2 0x2BC JUMPI PUSH1 0x0 DUP1 REVERT JUMPDEST POP PUSH2 0x142 PUSH2 0x2CB CALLDATASIZE PUSH1 0x4 PUSH2 0xECD JUMP JUMPDEST PUSH2 0x6F1 JUMP JUMPDEST CALLVALUE DUP1 ISZERO PUSH2 0x2DC JUMPI PUSH1 0x0 DUP1 REVERT JUMPDEST POP PUSH2 0x142 PUSH2 0x740 JUMP JUMPDEST CALLVALUE DUP1 ISZERO PUSH2 0x2F1 JUMPI PUSH1 0x0 DUP1 REVERT JUMPDEST POP PUSH1 0x4 SLOAD PUSH2 0x2FF SWAP1 PUSH1 0xFF AND DUP2 JUMP JUMPDEST PUSH1 0x40 MLOAD SWAP1 ISZERO ISZERO DUP2 MSTORE PUSH1 0x20 ADD PUSH2 0x16A JUMP JUMPDEST CALLVALUE DUP1 ISZERO PUSH2 0x31B JUMPI PUSH1 0x0 DUP1 REVERT JUMPDEST POP PUSH2 0x142 PUSH2 0x32A CALLDATASIZE PUSH1 0x4 PUSH2 0xE10 JUMP JUMPDEST PUSH2 0x7B7 JUMP JUMPDEST CALLVALUE DUP1 ISZERO PUSH2 0x33B JUMPI PUSH1 0x0 DUP1 REVERT JUMPDEST POP PUSH2 0x160 PUSH2 0x83D JUMP JUMPDEST CALLVALUE DUP1 ISZERO PUSH2 0x350 JUMPI PUSH1 0x0 DUP1 REVERT JUMPDEST POP PUSH2 0x382 PUSH2 0x35F CALLDATASIZE PUSH1 0x4 PUSH2 0xE10 JUMP JUMPDEST PUSH1 0x2 PUSH1 0x20 DUP2 SWAP1 MSTORE PUSH1 0x0 SWAP2 DUP3 MSTORE PUSH1 0x40 SWAP1 SWAP2 KECCAK256 DUP1 SLOAD PUSH1 0x1 DUP3 ADD SLOAD SWAP2 SWAP1 SWAP3 ADD SLOAD PUSH1 0xFF AND DUP4 JUMP JUMPDEST PUSH1 0x40 DUP1 MLOAD SWAP4 DUP5 MSTORE PUSH1 0x20 DUP5 ADD SWAP3 SWAP1 SWAP3 MSTORE ISZERO ISZERO SWAP1 DUP3 ADD MSTORE PUSH1 0x60 ADD PUSH2 0x16A JUMP JUMPDEST PUSH2 0x142 PUSH2 0x8CD JUMP JUMPDEST CALLVALUE DUP1 ISZERO PUSH2 0x3B3 JUMPI PUSH1 0x0 DUP1 REVERT JUMPDEST POP PUSH2 0x142 PUSH2 0x3C2 CALLDATASIZE PUSH1 0x4 PUSH2 0xE10 JUMP JUMPDEST PUSH2 0x92F JUMP JUMPDEST CALLVALUE DUP1 ISZERO PUSH2 0x3D3 JUMPI PUSH1 0x0 DUP1 REVERT JUMPDEST POP PUSH2 0x3E7 PUSH2 0x3E2 CALLDATASIZE PUSH1 0x4 PUSH2 0xEEA JUMP JUMPDEST PUSH2 0x9AD JUMP JUMPDEST PUSH1 0x40 MLOAD PUSH2 0x16A SWAP3 SWAP2 SWAP1 PUSH2 0xF3E JUMP JUMPDEST PUSH2 0x3FD PUSH2 0x9D0 JUMP JUMPDEST PUSH1 0x40 MLOAD PUSH3 0x1CB65B PUSH1 0xE5 SHL DUP2 MSTORE PUSH4 0xFFFFFFFF DUP3 AND PUSH1 0x4 DUP3 ADD MSTORE PUSH32 0x0 PUSH1 0x1 PUSH1 0x1 PUSH1 0xA0 SHL SUB AND SWAP1 PUSH4 0x396CB60 SWAP1 CALLVALUE SWAP1 PUSH1 0x24 ADD PUSH1 0x0 PUSH1 0x40 MLOAD DUP1 DUP4 SUB DUP2 DUP6 DUP9 DUP1 EXTCODESIZE ISZERO DUP1 ISZERO PUSH2 0x464 JUMPI PUSH1 0x0 DUP1 REVERT JUMPDEST POP GAS CALL ISZERO DUP1 ISZERO PUSH2 0x478 JUMPI RETURNDATASIZE PUSH1 0x0 DUP1 RETURNDATACOPY RETURNDATASIZE PUSH1 0x0 REVERT JUMPDEST POP POP POP POP POP POP JUMP JUMPDEST PUSH2 0x488 PUSH2 0x9D0 JUMP JUMPDEST PUSH1 0x40 MLOAD PUSH4 0x40B850F PUSH1 0xE3 SHL DUP2 MSTORE PUSH1 0x1 PUSH1 0x1 PUSH1 0xA0 SHL SUB DUP4 DUP2 AND PUSH1 0x4 DUP4 ADD MSTORE PUSH1 0x24 DUP3 ADD DUP4 SWAP1 MSTORE PUSH32 0x0 AND SWAP1 PUSH4 0x205C2878 SWAP1 PUSH1 0x44 ADD PUSH1 0x0 PUSH1 0x40 MLOAD DUP1 DUP4 SUB DUP2 PUSH1 0x0 DUP8 DUP1 EXTCODESIZE ISZERO DUP1 ISZERO PUSH2 0x464 JUMPI PUSH1 0x0 DUP1 REVERT JUMPDEST PUSH1 0x1 PUSH1 0x1 PUSH1 0xA0 SHL SUB DUP2 AND PUSH1 0x0 SWAP1 DUP2 MSTORE PUSH1 0x2 PUSH1 0x20 DUP2 DUP2 MSTORE PUSH1 0x40 DUP1 DUP5 KECCAK256 DUP2 MLOAD PUSH1 0x60 DUP2 ADD DUP4 MSTORE DUP2 SLOAD DUP2 MSTORE PUSH1 0x1 DUP3 ADD SLOAD SWAP4 DUP2 ADD DUP5 SWAP1 MSTORE SWAP4 ADD SLOAD PUSH1 0xFF AND ISZERO ISZERO SWAP1 DUP4 ADD MSTORE PUSH2 0x53E SWAP1 PUSH3 0x15180 SWAP1 PUSH2 0xFA9 JUMP JUMPDEST TIMESTAMP LT PUSH2 0x577 JUMPI DUP1 PUSH1 0x40 ADD MLOAD PUSH2 0x55B JUMPI PUSH8 0xDE0B6B3A7640000 PUSH2 0x570 JUMP JUMPDEST PUSH1 0x3 SLOAD PUSH2 0x570 SWAP1 PUSH8 0xDE0B6B3A7640000 PUSH2 0xFC2 JUMP JUMPDEST SWAP4 SWAP3 POP POP POP JUMP JUMPDEST PUSH1 0x0 DUP2 PUSH1 0x40 ADD MLOAD PUSH2 0x590 JUMPI PUSH8 0xDE0B6B3A7640000 PUSH2 0x5A5 JUMP JUMPDEST PUSH1 0x3 SLOAD PUSH2 0x5A5 SWAP1 PUSH8 0xDE0B6B3A7640000 PUSH2 0xFC2 JUMP JUMPDEST SWAP1 POP DUP1 DUP3 PUSH1 0x0 ADD MLOAD LT PUSH2 0x5BC JUMPI POP PUSH1 0x0 SWAP4 SWAP3 POP POP POP JUMP JUMPDEST DUP2 MLOAD PUSH2 0x5C8 SWAP1 DUP3 PUSH2 0xFD9 JUMP JUMPDEST SWAP5 SWAP4 POP POP POP POP JUMP JUMPDEST PUSH1 0x40 MLOAD PUSH4 0x2943E709 PUSH1 0xE1 SHL DUP2 MSTORE ADDRESS PUSH1 0x4 DUP3 ADD MSTORE PUSH1 0x0 SWAP1 PUSH32 0x0 PUSH1 0x1 PUSH1 0x1 PUSH1 0xA0 SHL SUB AND SWAP1 PUSH4 0x5287CE12 SWAP1 PUSH1 0x24 ADD PUSH1 0xA0 PUSH1 0x40 MLOAD DUP1 DUP4 SUB DUP2 DUP7 GAS STATICCALL ISZERO DUP1 ISZERO PUSH2 0x637 JUMPI RETURNDATASIZE PUSH1 0x0 DUP1 RETURNDATACOPY RETURNDATASIZE PUSH1 0x0 REVERT JUMPDEST POP POP POP POP PUSH1 0x40 MLOAD RETURNDATASIZE PUSH1 0x1F NOT PUSH1 0x1F DUP3 ADD AND DUP3 ADD DUP1 PUSH1 0x40 MSTORE POP DUP2 ADD SWAP1 PUSH2 0x65B SWAP2 SWAP1 PUSH2 0x1034 JUMP JUMPDEST MLOAD PUSH1 0x1 PUSH1 0x1 PUSH1 0x70 SHL SUB AND SWAP2 SWAP1 POP JUMP JUMPDEST PUSH2 0x672 PUSH2 0x9D0 JUMP JUMPDEST PUSH1 0x1 PUSH1 0x1 PUSH1 0xA0 SHL SUB DUP2 AND PUSH1 0x0 DUP2 DUP2 MSTORE PUSH1 0x2 PUSH1 0x20 DUP2 SWAP1 MSTORE PUSH1 0x40 DUP1 DUP4 KECCAK256 SWAP1 SWAP2 ADD DUP1 SLOAD PUSH1 0xFF NOT AND PUSH1 0x1 OR SWAP1 SSTORE MLOAD PUSH32 0xA6625D2D26E786E2F473111BEA4B2FCDBBF1863D883A2359989CE3A103D2972A SWAP2 SWAP1 LOG2 POP JUMP JUMPDEST PUSH2 0x6CB PUSH2 0x9D0 JUMP JUMPDEST PUSH2 0x6D5 PUSH1 0x0 PUSH2 0xA2A JUMP JUMPDEST JUMP JUMPDEST PUSH2 0x6DF PUSH2 0xA7A JUMP JUMPDEST PUSH2 0x6EB DUP5 DUP5 DUP5 DUP5 PUSH2 0xAEA JUMP JUMPDEST POP POP POP POP JUMP JUMPDEST PUSH2 0x6F9 PUSH2 0x9D0 JUMP JUMPDEST PUSH1 0x4 DUP1 SLOAD PUSH1 0xFF NOT AND DUP3 ISZERO ISZERO SWAP1 DUP2 OR SWAP1 SWAP2 SSTORE PUSH1 0x40 MLOAD SWAP1 DUP2 MSTORE PUSH32 0x12B63397B781E528E1D69C47D9B4AE364834A17E6DFFC73CC6881C79FCDFDD4E SWAP1 PUSH1 0x20 ADD PUSH1 0x40 MLOAD DUP1 SWAP2 SUB SWAP1 LOG1 POP JUMP JUMPDEST PUSH2 0x748 PUSH2 0x9D0 JUMP JUMPDEST PUSH32 0x0 PUSH1 0x1 PUSH1 0x1 PUSH1 0xA0 SHL SUB AND PUSH4 0xBB9FE6BF PUSH1 0x40 MLOAD DUP2 PUSH4 0xFFFFFFFF AND PUSH1 0xE0 SHL DUP2 MSTORE PUSH1 0x4 ADD PUSH1 0x0 PUSH1 0x40 MLOAD DUP1 DUP4 SUB DUP2 PUSH1 0x0 DUP8 DUP1 EXTCODESIZE ISZERO DUP1 ISZERO PUSH2 0x7A3 JUMPI PUSH1 0x0 DUP1 REVERT JUMPDEST POP GAS CALL ISZERO DUP1 ISZERO PUSH2 0x6EB JUMPI RETURNDATASIZE PUSH1 0x0 DUP1 RETURNDATACOPY RETURNDATASIZE PUSH1 0x0 REVERT JUMPDEST PUSH2 0x7BF PUSH2 0x9D0 JUMP JUMPDEST PUSH1 0x40 MLOAD PUSH4 0x611D2E75 PUSH1 0xE1 SHL DUP2 MSTORE PUSH1 0x1 PUSH1 0x1 PUSH1 0xA0 SHL SUB DUP3 DUP2 AND PUSH1 0x4 DUP4 ADD MSTORE PUSH32 0x0 AND SWAP1 PUSH4 0xC23A5CEA SWAP1 PUSH1 0x24 ADD PUSH1 0x0 PUSH1 0x40 MLOAD DUP1 DUP4 SUB DUP2 PUSH1 0x0 DUP8 DUP1 EXTCODESIZE ISZERO DUP1 ISZERO PUSH2 0x822 JUMPI PUSH1 0x0 DUP1 REVERT JUMPDEST POP GAS CALL ISZERO DUP1 ISZERO PUSH2 0x836 JUMPI RETURNDATASIZE PUSH1 0x0 DUP1 RETURNDATACOPY RETURNDATASIZE PUSH1 0x0 REVERT JUMPDEST POP POP POP POP POP JUMP JUMPDEST PUSH1 0x40 MLOAD PUSH4 0x70A08231 PUSH1 0xE0 SHL DUP2 MSTORE ADDRESS PUSH1 0x4 DUP3 ADD MSTORE PUSH1 0x0 SWAP1 PUSH32 0x0 PUSH1 0x1 PUSH1 0x1 PUSH1 0xA0 SHL SUB AND SWAP1 PUSH4 0x70A08231 SWAP1 PUSH1 0x24 ADD PUSH1 0x20 PUSH1 0x40 MLOAD DUP1 DUP4 SUB DUP2 DUP7 GAS STATICCALL ISZERO DUP1 ISZERO PUSH2 0x8A4 JUMPI RETURNDATASIZE PUSH1 0x0 DUP1 RETURNDATACOPY RETURNDATASIZE PUSH1 0x0 REVERT JUMPDEST POP POP POP POP PUSH1 0x40 MLOAD RETURNDATASIZE PUSH1 0x1F NOT PUSH1 0x1F DUP3 ADD AND DUP3 ADD DUP1 PUSH1 0x40 MSTORE POP DUP2 ADD SWAP1 PUSH2 0x8C8 SWAP2 SWAP1 PUSH2 0x10D2 JUMP JUMPDEST SWAP1 POP SWAP1 JUMP JUMPDEST PUSH1 0x40 MLOAD PUSH4 0xB760FAF9 PUSH1 0xE0 SHL DUP2 MSTORE ADDRESS PUSH1 0x4 DUP3 ADD MSTORE PUSH32 0x0 PUSH1 0x1 PUSH1 0x1 PUSH1 0xA0 SHL SUB AND SWAP1 PUSH4 0xB760FAF9 SWAP1 CALLVALUE SWAP1 PUSH1 0x24 ADD PUSH1 0x0 PUSH1 0x40 MLOAD DUP1 DUP4 SUB DUP2 DUP6 DUP9 DUP1 EXTCODESIZE ISZERO DUP1 ISZERO PUSH2 0x822 JUMPI PUSH1 0x0 DUP1 REVERT JUMPDEST PUSH2 0x937 PUSH2 0x9D0 JUMP JUMPDEST PUSH1 0x1 PUSH1 0x1 PUSH1 0xA0 SHL SUB DUP2 AND PUSH2 0x9A1 JUMPI PUSH1 0x40 MLOAD PUSH3 0x461BCD PUSH1 0xE5 SHL DUP2 MSTORE PUSH1 0x20 PUSH1 0x4 DUP3 ADD MSTORE PUSH1 0x26 PUSH1 0x24 DUP3 ADD MSTORE PUSH32 0x4F776E61626C653A206E6577206F776E657220697320746865207A65726F2061 PUSH1 0x44 DUP3 ADD MSTORE PUSH6 0x646472657373 PUSH1 0xD0 SHL PUSH1 0x64 DUP3 ADD MSTORE PUSH1 0x84 ADD JUMPDEST PUSH1 0x40 MLOAD DUP1 SWAP2 SUB SWAP1 REVERT JUMPDEST PUSH2 0x9AA DUP2 PUSH2 0xA2A JUMP JUMPDEST POP JUMP JUMPDEST PUSH1 0x60 PUSH1 0x0 PUSH2 0x9B9 PUSH2 0xA7A JUMP JUMPDEST PUSH2 0x9C4 DUP6 DUP6 DUP6 PUSH2 0xBB7 JUMP JUMPDEST SWAP2 POP SWAP2 POP SWAP4 POP SWAP4 SWAP2 POP POP JUMP JUMPDEST PUSH1 0x0 SLOAD PUSH1 0x1 PUSH1 0x1 PUSH1 0xA0 SHL SUB AND CALLER EQ PUSH2 0x6D5 JUMPI PUSH1 0x40 MLOAD PUSH3 0x461BCD PUSH1 0xE5 SHL DUP2 MSTORE PUSH1 0x20 PUSH1 0x4 DUP3 ADD DUP2 SWAP1 MSTORE PUSH1 0x24 DUP3 ADD MSTORE PUSH32 0x4F776E61626C653A2063616C6C6572206973206E6F7420746865206F776E6572 PUSH1 0x44 DUP3 ADD MSTORE PUSH1 0x64 ADD PUSH2 0x998 JUMP JUMPDEST PUSH1 0x0 DUP1 SLOAD PUSH1 0x1 PUSH1 0x1 PUSH1 0xA0 SHL SUB DUP4 DUP2 AND PUSH1 0x1 PUSH1 0x1 PUSH1 0xA0 SHL SUB NOT DUP4 AND DUP2 OR DUP5 SSTORE PUSH1 0x40 MLOAD SWAP2 SWAP1 SWAP3 AND SWAP3 DUP4 SWAP2 PUSH32 0x8BE0079C531659141344CD1FD0A4F28419497F9722A3DAAFE3B4186F6B6457E0 SWAP2 SWAP1 LOG3 POP POP JUMP JUMPDEST CALLER PUSH1 0x1 PUSH1 0x1 PUSH1 0xA0 SHL SUB PUSH32 0x0 AND EQ PUSH2 0x6D5 JUMPI PUSH1 0x40 MLOAD PUSH3 0x461BCD PUSH1 0xE5 SHL DUP2 MSTORE PUSH1 0x20 PUSH1 0x4 DUP3 ADD MSTORE PUSH1 0x15 PUSH1 0x24 DUP3 ADD MSTORE PUSH21 0x14D95B99195C881B9BDD08115B9D1C9E541BDA5B9D PUSH1 0x5A SHL PUSH1 0x44 DUP3 ADD MSTORE PUSH1 0x64 ADD PUSH2 0x998 JUMP JUMPDEST PUSH1 0x0 DUP1 PUSH2 0xAF9 DUP5 DUP7 ADD DUP7 PUSH2 0xDE4 JUMP JUMPDEST PUSH1 0x1 PUSH1 0x1 PUSH1 0xA0 SHL SUB DUP3 AND PUSH1 0x0 SWAP1 DUP2 MSTORE PUSH1 0x2 PUSH1 0x20 MSTORE PUSH1 0x40 DUP2 KECCAK256 DUP1 SLOAD SWAP4 SWAP6 POP SWAP2 SWAP4 POP SWAP1 SWAP2 DUP6 SWAP2 DUP4 SWAP2 PUSH2 0xB2A SWAP1 DUP5 SWAP1 PUSH2 0xFA9 JUMP JUMPDEST SWAP1 SWAP2 SSTORE POP POP PUSH1 0x2 DUP2 ADD SLOAD PUSH8 0xDE0B6B3A7640000 SWAP1 PUSH1 0xFF AND ISZERO PUSH2 0xB56 JUMPI PUSH1 0x3 SLOAD PUSH2 0xB53 SWAP1 DUP3 PUSH2 0xFC2 JUMP JUMPDEST SWAP1 POP JUMPDEST DUP2 SLOAD PUSH1 0x0 SWAP1 PUSH2 0xB65 SWAP1 DUP4 PUSH2 0xFD9 JUMP JUMPDEST PUSH1 0x40 DUP1 MLOAD DUP9 DUP2 MSTORE PUSH1 0x20 DUP2 ADD DUP4 SWAP1 MSTORE SWAP2 SWAP3 POP PUSH1 0x1 PUSH1 0x1 PUSH1 0xA0 SHL SUB DUP8 AND SWAP2 PUSH32 0xB3D8DA13E2EEC10930982AE94CC39CD56A1E686B864A50F632765647BDFE622B SWAP2 ADD PUSH1 0x40 MLOAD DUP1 SWAP2 SUB SWAP1 LOG2 POP POP POP POP POP POP POP POP POP JUMP JUMPDEST PUSH1 0x4 SLOAD PUSH1 0x60 SWAP1 PUSH1 0x0 SWAP1 PUSH1 0xFF AND PUSH2 0xC04 JUMPI PUSH1 0x40 MLOAD PUSH3 0x461BCD PUSH1 0xE5 SHL DUP2 MSTORE PUSH1 0x20 PUSH1 0x4 DUP3 ADD MSTORE PUSH1 0x12 PUSH1 0x24 DUP3 ADD MSTORE PUSH18 0x5061796D617374657220696E616374697665 PUSH1 0x70 SHL PUSH1 0x44 DUP3 ADD MSTORE PUSH1 0x64 ADD PUSH2 0x998 JUMP JUMPDEST PUSH1 0x0 PUSH2 0xC13 PUSH1 0x20 DUP8 ADD DUP8 PUSH2 0xE10 JUMP JUMPDEST PUSH1 0x1 PUSH1 0x1 PUSH1 0xA0 SHL SUB DUP2 AND PUSH1 0x0 SWAP1 DUP2 MSTORE PUSH1 0x2 PUSH1 0x20 MSTORE PUSH1 0x40 SWAP1 KECCAK256 PUSH1 0x1 DUP2 ADD SLOAD SWAP2 SWAP3 POP SWAP1 PUSH2 0xC42 SWAP1 PUSH3 0x15180 SWAP1 PUSH2 0xFA9 JUMP JUMPDEST TIMESTAMP LT PUSH2 0xC85 JUMPI PUSH1 0x0 DUP1 DUP3 SSTORE TIMESTAMP PUSH1 0x1 DUP4 ADD SSTORE PUSH1 0x40 MLOAD PUSH1 0x1 PUSH1 0x1 PUSH1 0xA0 SHL SUB DUP5 AND SWAP2 PUSH32 0xAC87FC0FAF18AABEE41A3FF0D626CE20D51E373E68E2054F991FCE5BD7664D89 SWAP2 LOG2 JUMPDEST PUSH1 0x2 DUP2 ADD SLOAD PUSH8 0xDE0B6B3A7640000 SWAP1 PUSH1 0xFF AND ISZERO PUSH2 0xCAC JUMPI PUSH1 0x3 SLOAD PUSH2 0xCA9 SWAP1 DUP3 PUSH2 0xFC2 JUMP JUMPDEST SWAP1 POP JUMPDEST DUP2 SLOAD PUSH1 0x0 SWAP1 PUSH2 0xCBB SWAP1 DUP4 PUSH2 0xFD9 JUMP JUMPDEST SWAP1 POP DUP7 DUP2 LT ISZERO PUSH2 0xD0D JUMPI PUSH1 0x40 MLOAD PUSH3 0x461BCD PUSH1 0xE5 SHL DUP2 MSTORE PUSH1 0x20 PUSH1 0x4 DUP3 ADD MSTORE PUSH1 0x18 PUSH1 0x24 DUP3 ADD MSTORE PUSH32 0x4461696C7920676173206C696D69742065786365656465640000000000000000 PUSH1 0x44 DUP3 ADD MSTORE PUSH1 0x64 ADD PUSH2 0x998 JUMP JUMPDEST DUP7 PUSH2 0xD16 PUSH2 0x5D0 JUMP JUMPDEST LT ISZERO PUSH2 0xD64 JUMPI PUSH1 0x40 MLOAD PUSH3 0x461BCD PUSH1 0xE5 SHL DUP2 MSTORE PUSH1 0x20 PUSH1 0x4 DUP3 ADD MSTORE PUSH1 0x19 PUSH1 0x24 DUP3 ADD MSTORE PUSH32 0x5061796D6173746572206465706F73697420746F6F206C6F7700000000000000 PUSH1 0x44 DUP3 ADD MSTORE PUSH1 0x64 ADD PUSH2 0x998 JUMP JUMPDEST PUSH1 0x40 DUP1 MLOAD PUSH1 0x1 PUSH1 0x1 PUSH1 0xA0 SHL SUB DUP7 AND PUSH1 0x20 DUP3 ADD MSTORE SWAP1 DUP2 ADD DUP9 SWAP1 MSTORE PUSH1 0x60 ADD PUSH1 0x40 DUP1 MLOAD DUP1 DUP4 SUB PUSH1 0x1F NOT ADD DUP2 MSTORE SWAP2 SWAP1 MSTORE SWAP10 PUSH1 0x0 SWAP10 POP SWAP8 POP POP POP POP POP POP POP POP JUMP JUMPDEST PUSH4 0xFFFFFFFF DUP2 AND DUP2 EQ PUSH2 0x9AA JUMPI PUSH1 0x0 DUP1 REVERT JUMPDEST PUSH1 0x0 PUSH1 0x20 DUP3 DUP5 SUB SLT ISZERO PUSH2 0xDC4 JUMPI PUSH1 0x0 DUP1 REVERT JUMPDEST DUP2 CALLDATALOAD PUSH2 0x570 DUP2 PUSH2 0xDA0 JUMP JUMPDEST PUSH1 0x1 PUSH1 0x1 PUSH1 0xA0 SHL SUB DUP2 AND DUP2 EQ PUSH2 0x9AA JUMPI PUSH1 0x0 DUP1 REVERT JUMPDEST PUSH1 0x0 DUP1 PUSH1 0x40 DUP4 DUP6 SUB SLT ISZERO PUSH2 0xDF7 JUMPI PUSH1 0x0 DUP1 REVERT JUMPDEST DUP3 CALLDATALOAD PUSH2 0xE02 DUP2 PUSH2 0xDCF JUMP JUMPDEST SWAP5 PUSH1 0x20 SWAP4 SWAP1 SWAP4 ADD CALLDATALOAD SWAP4 POP POP POP JUMP JUMPDEST PUSH1 0x0 PUSH1 0x20 DUP3 DUP5 SUB SLT ISZERO PUSH2 0xE22 JUMPI PUSH1 0x0 DUP1 REVERT JUMPDEST DUP2 CALLDATALOAD PUSH2 0x570 DUP2 PUSH2 0xDCF JUMP JUMPDEST PUSH1 0x0 DUP1 PUSH1 0x0 DUP1 PUSH1 0x60 DUP6 DUP8 SUB SLT ISZERO PUSH2 0xE43 JUMPI PUSH1 0x0 DUP1 REVERT JUMPDEST DUP5 CALLDATALOAD PUSH1 0x3 DUP2 LT PUSH2 0xE52 JUMPI PUSH1 0x0 DUP1 REVERT JUMPDEST SWAP4 POP PUSH1 0x20 DUP6 ADD CALLDATALOAD PUSH8 0xFFFFFFFFFFFFFFFF DUP2 GT ISZERO PUSH2 0xE6E JUMPI PUSH1 0x0 DUP1 REVERT JUMPDEST DUP6 ADD PUSH1 0x1F DUP2 ADD DUP8 SGT PUSH2 0xE7F JUMPI PUSH1 0x0 DUP1 REVERT JUMPDEST DUP1 CALLDATALOAD PUSH8 0xFFFFFFFFFFFFFFFF DUP2 GT ISZERO PUSH2 0xE96 JUMPI PUSH1 0x0 DUP1 REVERT JUMPDEST DUP8 PUSH1 0x20 DUP3 DUP5 ADD ADD GT ISZERO PUSH2 0xEA8 JUMPI PUSH1 0x0 DUP1 REVERT JUMPDEST SWAP5 SWAP8 PUSH1 0x20 SWAP2 SWAP1 SWAP2 ADD SWAP7 POP SWAP4 SWAP5 PUSH1 0x40 ADD CALLDATALOAD SWAP4 SWAP3 POP POP POP JUMP JUMPDEST DUP1 ISZERO ISZERO DUP2 EQ PUSH2 0x9AA JUMPI PUSH1 0x0 DUP1 REVERT JUMPDEST PUSH1 0x0 PUSH1 0x20 DUP3 DUP5 SUB SLT ISZERO PUSH2 0xEDF JUMPI PUSH1 0x0 DUP1 REVERT JUMPDEST DUP2 CALLDATALOAD PUSH2 0x570 DUP2 PUSH2 0xEBF JUMP JUMPDEST PUSH1 0x0 DUP1 PUSH1 0x0 PUSH1 0x60 DUP5 DUP7 SUB SLT ISZERO PUSH2 0xEFF JUMPI PUSH1 0x0 DUP1 REVERT JUMPDEST DUP4 CALLDATALOAD PUSH8 0xFFFFFFFFFFFFFFFF DUP2 GT ISZERO PUSH2 0xF16 JUMPI PUSH1 0x0 DUP1 REVERT JUMPDEST DUP5 ADD PUSH2 0x160 DUP2 DUP8 SUB SLT ISZERO PUSH2 0xF29 JUMPI PUSH1 0x0 DUP1 REVERT JUMPDEST SWAP6 PUSH1 0x20 DUP6 ADD CALLDATALOAD SWAP6 POP PUSH1 0x40 SWAP1 SWAP5 ADD CALLDATALOAD SWAP4 SWAP3 POP POP POP JUMP JUMPDEST PUSH1 0x40 DUP2 MSTORE PUSH1 0x0 DUP4 MLOAD DUP1 PUSH1 0x40 DUP5 ADD MSTORE PUSH1 0x0 JUMPDEST DUP2 DUP2 LT ISZERO PUSH2 0xF6C JUMPI PUSH1 0x20 DUP2 DUP8 ADD DUP2 ADD MLOAD PUSH1 0x60 DUP7 DUP5 ADD ADD MSTORE ADD PUSH2 0xF4F JUMP JUMPDEST POP PUSH1 0x0 PUSH1 0x60 DUP3 DUP6 ADD ADD MSTORE PUSH1 0x60 PUSH1 0x1F NOT PUSH1 0x1F DUP4 ADD AND DUP5 ADD ADD SWAP2 POP POP DUP3 PUSH1 0x20 DUP4 ADD MSTORE SWAP4 SWAP3 POP POP POP JUMP JUMPDEST PUSH4 0x4E487B71 PUSH1 0xE0 SHL PUSH1 0x0 MSTORE PUSH1 0x11 PUSH1 0x4 MSTORE PUSH1 0x24 PUSH1 0x0 REVERT JUMPDEST DUP1 DUP3 ADD DUP1 DUP3 GT ISZERO PUSH2 0xFBC JUMPI PUSH2 0xFBC PUSH2 0xF93 JUMP JUMPDEST SWAP3 SWAP2 POP POP JUMP JUMPDEST DUP1 DUP3 MUL DUP2 ISZERO DUP3 DUP3 DIV DUP5 EQ OR PUSH2 0xFBC JUMPI PUSH2 0xFBC PUSH2 0xF93 JUMP JUMPDEST DUP2 DUP2 SUB DUP2 DUP2 GT ISZERO PUSH2 0xFBC JUMPI PUSH2 0xFBC PUSH2 0xF93 JUMP JUMPDEST DUP1 MLOAD PUSH1 0x1 PUSH1 0x1 PUSH1 0x70 SHL SUB DUP2 AND DUP2 EQ PUSH2 0x1003 JUMPI PUSH1 0x0 DUP1 REVERT JUMPDEST SWAP2 SWAP1 POP JUMP JUMPDEST DUP1 MLOAD PUSH2 0x1003 DUP2 PUSH2 0xEBF JUMP JUMPDEST DUP1 MLOAD PUSH2 0x1003 DUP2 PUSH2 0xDA0 JUMP JUMPDEST DUP1 MLOAD PUSH6 0xFFFFFFFFFFFF DUP2 AND DUP2 EQ PUSH2 0x1003 JUMPI PUSH1 0x0 DUP1 REVERT JUMPDEST PUSH1 0x0 PUSH1 0xA0 DUP3 DUP5 SUB SLT DUP1 ISZERO PUSH2 0x1047 JUMPI PUSH1 0x0 DUP1 REVERT JUMPDEST POP PUSH1 0x40 MLOAD PUSH1 0xA0 DUP2 ADD PUSH8 0xFFFFFFFFFFFFFFFF DUP2 GT DUP3 DUP3 LT OR ISZERO PUSH2 0x1079 JUMPI PUSH4 0x4E487B71 PUSH1 0xE0 SHL PUSH1 0x0 MSTORE PUSH1 0x41 PUSH1 0x4 MSTORE PUSH1 0x24 PUSH1 0x0 REVERT JUMPDEST PUSH1 0x40 MSTORE PUSH2 0x1085 DUP4 PUSH2 0xFEC JUMP JUMPDEST DUP2 MSTORE PUSH2 0x1093 PUSH1 0x20 DUP5 ADD PUSH2 0x1008 JUMP JUMPDEST PUSH1 0x20 DUP3 ADD MSTORE PUSH2 0x10A4 PUSH1 0x40 DUP5 ADD PUSH2 0xFEC JUMP JUMPDEST PUSH1 0x40 DUP3 ADD MSTORE PUSH2 0x10B5 PUSH1 0x60 DUP5 ADD PUSH2 0x1013 JUMP JUMPDEST PUSH1 0x60 DUP3 ADD MSTORE PUSH2 0x10C6 PUSH1 0x80 DUP5 ADD PUSH2 0x101E JUMP JUMPDEST PUSH1 0x80 DUP3 ADD MSTORE SWAP4 SWAP3 POP POP POP JUMP JUMPDEST PUSH1 0x0 PUSH1 0x20 DUP3 DUP5 SUB SLT ISZERO PUSH2 0x10E4 JUMPI PUSH1 0x0 DUP1 REVERT JUMPDEST POP MLOAD SWAP2 SWAP1 POP JUMP INVALID LOG2 PUSH5 0x6970667358 0x22 SLT KECCAK256 SWAP5 CALLDATACOPY LOG0 SHR 0x4C SSTORE 0xD 0xB2 PUSH23 0x139717CD1691FA9E784D1A7CA24918EA6876FA4E143C32 PUSH5 0x736F6C6343 STOP ADDMOD SHR STOP CALLER "
        },
        "methodIdentifiers": {
          "DAILY_GAS_LIMIT()": "0ea9904c",
          "ONE_DAY()": "863e76db",
          "addStake(uint32)": "0396cb60",
          "deposit()": "d0e30db0",
          "entryPoint()": "b0d691fe",
          "getDeposit()": "c399ec88",
          "getRemainingDailyGas(address)": "2ad59123",
          "owner()": "8da5cb5b",
          "paymasterActive()": "bd90ff13",
          "paymasterDeposit()": "37d0b0af",
          "postOp(uint8,bytes,uint256)": "a9a23409",
          "renounceOwnership()": "715018a6",
          "togglePaymaster(bool)": "b2757b64",
          "transferOwnership(address)": "f2fde38b",
          "unlockStake()": "bb9fe6bf",
          "userGasData(address)": "d049ef00",
          "validatePaymasterUserOp((address,uint256,bytes,bytes,uint256,uint256,uint256,uint256,uint256,bytes,bytes),bytes32,uint256)": "f465c77e",
          "verifiedUserMultiplier()": "1e5a6259",
          "verifyUser(address)": "4d813120",
          "withdrawStake(address)": "c23a5cea",
          "withdrawTo(address,uint256)": "205c2878"
        }
      }
    }
  }
}