{
  "_format": "hh-sol-artifact-1",
  "contractName": "CPPayPaymaster",
  "sourceName": "contracts/CPPayPaymaster.sol",
  "abi": [
    {
      "inputs": [
        {
          "internalType": "contract IEntryPoint",
          "name": "entryPoint_",
          "type": "address"
        }
      ],
      "stateMutability": "nonpayable",
      "type": "constructor"
    },
    {
      "anonymous": false,
      "inputs": [
        {
          "indexed": false,
          "internalType": "uint256",
          "name": "newBudgetKobo",
          "type": "uint256"
        }
      ],
      "name": "BaseBudgetUpdated",
      "type": "event"
    },
    {
      "anonymous": false,
      "inputs": [
        {
          "indexed": true,
          "internalType": "address",
          "name": "account",
          "type": "address"
        },
        {
          "indexed": false,
          "internalType": "uint256",
          "name": "newBudgetWei",
          "type": "uint256"
        }
      ],
      "name": "DailyBudgetReset",
      "type": "event"
    },
    {
      "anonymous": false,
      "inputs": [
        {
          "indexed": false,
          "internalType": "uint256",
          "name": "weiPerKobo",
          "type": "uint256"
        },
        {
          "indexed": false,
          "internalType": "uint256",
          "name": "timestamp",
          "type": "uint256"
        }
      ],
      "name": "ExchangeRateUpdated",
      "type": "event"
    },
    {
      "anonymous": false,
      "inputs": [
        {
          "indexed": true,
          "internalType": "address",
          "name": "account",
          "type": "address"
        },
        {
          "indexed": false,
          "internalType": "uint256",
          "name": "actualWei",
          "type": "uint256"
        },
        {
          "indexed": false,
          "internalType": "uint256",
          "name": "remainingWei",
          "type": "uint256"
        }
      ],
      "name": "GasSponsored",
      "type": "event"
    },
    {
      "anonymous": false,
      "inputs": [
        {
          "indexed": true,
          "internalType": "address",
          "name": "previousOwner",
          "type": "address"
        },
        {
          "indexed": true,
          "internalType": "address",
          "name": "newOwner",
          "type": "address"
        }
      ],
      "name": "OwnershipTransferred",
      "type": "event"
    },
    {
      "anonymous": false,
      "inputs": [
        {
          "indexed": false,
          "internalType": "bool",
          "name": "active",
          "type": "bool"
        }
      ],
      "name": "PaymasterActivationChanged",
      "type": "event"
    },
    {
      "anonymous": false,
      "inputs": [
        {
          "indexed": true,
          "internalType": "bytes32",
          "name": "role",
          "type": "bytes32"
        },
        {
          "indexed": true,
          "internalType": "bytes32",
          "name": "previousAdminRole",
          "type": "bytes32"
        },
        {
          "indexed": true,
          "internalType": "bytes32",
          "name": "newAdminRole",
          "type": "bytes32"
        }
      ],
      "name": "RoleAdminChanged",
      "type": "event"
    },
    {
      "anonymous": false,
      "inputs": [
        {
          "indexed": true,
          "internalType": "bytes32",
          "name": "role",
          "type": "bytes32"
        },
        {
          "indexed": true,
          "internalType": "address",
          "name": "account",
          "type": "address"
        },
        {
          "indexed": true,
          "internalType": "address",
          "name": "sender",
          "type": "address"
        }
      ],
      "name": "RoleGranted",
      "type": "event"
    },
    {
      "anonymous": false,
      "inputs": [
        {
          "indexed": true,
          "internalType": "bytes32",
          "name": "role",
          "type": "bytes32"
        },
        {
          "indexed": true,
          "internalType": "address",
          "name": "account",
          "type": "address"
        },
        {
          "indexed": true,
          "internalType": "address",
          "name": "sender",
          "type": "address"
        }
      ],
      "name": "RoleRevoked",
      "type": "event"
    },
    {
      "anonymous": false,
      "inputs": [
        {
          "indexed": false,
          "internalType": "uint256",
          "name": "newMultiplier",
          "type": "uint256"
        }
      ],
      "name": "TierMultiplierUpdated",
      "type": "event"
    },
    {
      "anonymous": false,
      "inputs": [
        {
          "indexed": true,
          "internalType": "address",
          "name": "account",
          "type": "address"
        },
        {
          "indexed": false,
          "internalType": "bool",
          "name": "isTier2",
          "type": "bool"
        },
        {
          "indexed": false,
          "internalType": "uint256",
          "name": "multiplier",
          "type": "uint256"
        }
      ],
      "name": "UserTierUpdated",
      "type": "event"
    },
    {
      "inputs": [],
      "name": "CONTROLLER_ROLE",
      "outputs": [
        {
          "internalType": "bytes32",
          "name": "",
          "type": "bytes32"
        }
      ],
      "stateMutability": "view",
      "type": "function"
    },
    {
      "inputs": [],
      "name": "DEFAULT_ADMIN_ROLE",
      "outputs": [
        {
          "internalType": "bytes32",
          "name": "",
          "type": "bytes32"
        }
      ],
      "stateMutability": "view",
      "type": "function"
    },
    {
      "inputs": [],
      "name": "ONE_DAY",
      "outputs": [
        {
          "internalType": "uint256",
          "name": "",
          "type": "uint256"
        }
      ],
      "stateMutability": "view",
      "type": "function"
    },
    {
      "inputs": [],
      "name": "TIER1_MULTIPLIER",
      "outputs": [
        {
          "internalType": "uint256",
          "name": "",
          "type": "uint256"
        }
      ],
      "stateMutability": "view",
      "type": "function"
    },
    {
      "inputs": [
        {
          "internalType": "uint32",
          "name": "unstakeDelaySec",
          "type": "uint32"
        }
      ],
      "name": "addStake",
      "outputs": [],
      "stateMutability": "payable",
      "type": "function"
    },
    {
      "inputs": [],
      "name": "baseDailyBudgetKobo",
      "outputs": [
        {
          "internalType": "uint256",
          "name": "",
          "type": "uint256"
        }
      ],
      "stateMutability": "view",
      "type": "function"
    },
    {
      "inputs": [],
      "name": "deposit",
      "outputs": [],
      "stateMutability": "payable",
      "type": "function"
    },
    {
      "inputs": [],
      "name": "entryPoint",
      "outputs": [
        {
          "internalType": "contract IEntryPoint",
          "name": "",
          "type": "address"
        }
      ],
      "stateMutability": "view",
      "type": "function"
    },
    {
      "inputs": [],
      "name": "getDeposit",
      "outputs": [
        {
          "internalType": "uint256",
          "name": "",
          "type": "uint256"
        }
      ],
      "stateMutability": "view",
      "type": "function"
    },
    {
      "inputs": [
        {
          "internalType": "address",
          "name": "account",
          "type": "address"
        }
      ],
      "name": "getGasStatus",
      "outputs": [
        {
          "internalType": "uint256",
          "name": "dailyLimitWei",
          "type": "uint256"
        },
        {
          "internalType": "uint256",
          "name": "usedWei",
          "type": "uint256"
        },
        {
          "internalType": "uint256",
          "name": "remainingWei",
          "type": "uint256"
        },
        {
          "internalType": "uint64",
          "name": "lastReset",
          "type": "uint64"
        },
        {
          "internalType": "bool",
          "name": "isTier2",
          "type": "bool"
        }
      ],
      "stateMutability": "view",
      "type": "function"
    },
    {
      "inputs": [
        {
          "internalType": "bytes32",
          "name": "role",
          "type": "bytes32"
        }
      ],
      "name": "getRoleAdmin",
      "outputs": [
        {
          "internalType": "bytes32",
          "name": "",
          "type": "bytes32"
        }
      ],
      "stateMutability": "view",
      "type": "function"
    },
    {
      "inputs": [
        {
          "internalType": "bytes32",
          "name": "role",
          "type": "bytes32"
        },
        {
          "internalType": "address",
          "name": "account",
          "type": "address"
        }
      ],
      "name": "grantRole",
      "outputs": [],
      "stateMutability": "nonpayable",
      "type": "function"
    },
    {
      "inputs": [
        {
          "internalType": "bytes32",
          "name": "role",
          "type": "bytes32"
        },
        {
          "internalType": "address",
          "name": "account",
          "type": "address"
        }
      ],
      "name": "hasRole",
      "outputs": [
        {
          "internalType": "bool",
          "name": "",
          "type": "bool"
        }
      ],
      "stateMutability": "view",
      "type": "function"
    },
    {
      "inputs": [],
      "name": "owner",
      "outputs": [
        {
          "internalType": "address",
          "name": "",
          "type": "address"
        }
      ],
      "stateMutability": "view",
      "type": "function"
    },
    {
      "inputs": [],
      "name": "paymasterActive",
      "outputs": [
        {
          "internalType": "bool",
          "name": "",
          "type": "bool"
        }
      ],
      "stateMutability": "view",
      "type": "function"
    },
    {
      "inputs": [],
      "name": "paymasterDeposit",
      "outputs": [
        {
          "internalType": "uint256",
          "name": "",
          "type": "uint256"
        }
      ],
      "stateMutability": "view",
      "type": "function"
    },
    {
      "inputs": [
        {
          "internalType": "enum IPaymaster.PostOpMode",
          "name": "mode",
          "type": "uint8"
        },
        {
          "internalType": "bytes",
          "name": "context",
          "type": "bytes"
        },
        {
          "internalType": "uint256",
          "name": "actualGasCost",
          "type": "uint256"
        }
      ],
      "name": "postOp",
      "outputs": [],
      "stateMutability": "nonpayable",
      "type": "function"
    },
    {
      "inputs": [],
      "name": "renounceOwnership",
      "outputs": [],
      "stateMutability": "nonpayable",
      "type": "function"
    },
    {
      "inputs": [
        {
          "internalType": "bytes32",
          "name": "role",
          "type": "bytes32"
        },
        {
          "internalType": "address",
          "name": "account",
          "type": "address"
        }
      ],
      "name": "renounceRole",
      "outputs": [],
      "stateMutability": "nonpayable",
      "type": "function"
    },
    {
      "inputs": [
        {
          "internalType": "bytes32",
          "name": "role",
          "type": "bytes32"
        },
        {
          "internalType": "address",
          "name": "account",
          "type": "address"
        }
      ],
      "name": "revokeRole",
      "outputs": [],
      "stateMutability": "nonpayable",
      "type": "function"
    },
    {
      "inputs": [
        {
          "internalType": "bool",
          "name": "active",
          "type": "bool"
        }
      ],
      "name": "setPaymasterActive",
      "outputs": [],
      "stateMutability": "nonpayable",
      "type": "function"
    },
    {
      "inputs": [
        {
          "internalType": "address",
          "name": "account",
          "type": "address"
        },
        {
          "internalType": "bool",
          "name": "isTier2",
          "type": "bool"
        }
      ],
      "name": "setUserTier",
      "outputs": [],
      "stateMutability": "nonpayable",
      "type": "function"
    },
    {
      "inputs": [
        {
          "internalType": "bytes4",
          "name": "interfaceId",
          "type": "bytes4"
        }
      ],
      "name": "supportsInterface",
      "outputs": [
        {
          "internalType": "bool",
          "name": "",
          "type": "bool"
        }
      ],
      "stateMutability": "view",
      "type": "function"
    },
    {
      "inputs": [],
      "name": "tier2Multiplier",
      "outputs": [
        {
          "internalType": "uint256",
          "name": "",
          "type": "uint256"
        }
      ],
      "stateMutability": "view",
      "type": "function"
    },
    {
      "inputs": [
        {
          "internalType": "address",
          "name": "newOwner",
          "type": "address"
        }
      ],
      "name": "transferOwnership",
      "outputs": [],
      "stateMutability": "nonpayable",
      "type": "function"
    },
    {
      "inputs": [],
      "name": "unlockStake",
      "outputs": [],
      "stateMutability": "nonpayable",
      "type": "function"
    },
    {
      "inputs": [
        {
          "internalType": "uint256",
          "name": "newBudgetKobo",
          "type": "uint256"
        }
      ],
      "name": "updateBaseDailyBudget",
      "outputs": [],
      "stateMutability": "nonpayable",
      "type": "function"
    },
    {
      "inputs": [
        {
          "internalType": "uint256",
          "name": "newWeiPerKobo",
          "type": "uint256"
        }
      ],
      "name": "updateExchangeRate",
      "outputs": [],
      "stateMutability": "nonpayable",
      "type": "function"
    },
    {
      "inputs": [
        {
          "internalType": "uint256",
          "name": "newMultiplier",
          "type": "uint256"
        }
      ],
      "name": "updateTier2Multiplier",
      "outputs": [],
      "stateMutability": "nonpayable",
      "type": "function"
    },
    {
      "inputs": [
        {
          "internalType": "address",
          "name": "",
          "type": "address"
        }
      ],
      "name": "userBudgets",
      "outputs": [
        {
          "internalType": "uint256",
          "name": "usedWeiToday",
          "type": "uint256"
        },
        {
          "internalType": "uint64",
          "name": "lastReset",
          "type": "uint64"
        },
        {
          "internalType": "bool",
          "name": "isTier2",
          "type": "bool"
        }
      ],
      "stateMutability": "view",
      "type": "function"
    },
    {
      "inputs": [
        {
          "components": [
            {
              "internalType": "address",
              "name": "sender",
              "type": "address"
            },
            {
              "internalType": "uint256",
              "name": "nonce",
              "type": "uint256"
            },
            {
              "internalType": "bytes",
              "name": "initCode",
              "type": "bytes"
            },
            {
              "internalType": "bytes",
              "name": "callData",
              "type": "bytes"
            },
            {
              "internalType": "uint256",
              "name": "callGasLimit",
              "type": "uint256"
            },
            {
              "internalType": "uint256",
              "name": "verificationGasLimit",
              "type": "uint256"
            },
            {
              "internalType": "uint256",
              "name": "preVerificationGas",
              "type": "uint256"
            },
            {
              "internalType": "uint256",
              "name": "maxFeePerGas",
              "type": "uint256"
            },
            {
              "internalType": "uint256",
              "name": "maxPriorityFeePerGas",
              "type": "uint256"
            },
            {
              "internalType": "bytes",
              "name": "paymasterAndData",
              "type": "bytes"
            },
            {
              "internalType": "bytes",
              "name": "signature",
              "type": "bytes"
            }
          ],
          "internalType": "struct UserOperation",
          "name": "userOp",
          "type": "tuple"
        },
        {
          "internalType": "bytes32",
          "name": "userOpHash",
          "type": "bytes32"
        },
        {
          "internalType": "uint256",
          "name": "maxCost",
          "type": "uint256"
        }
      ],
      "name": "validatePaymasterUserOp",
      "outputs": [
        {
          "internalType": "bytes",
          "name": "context",
          "type": "bytes"
        },
        {
          "internalType": "uint256",
          "name": "validationData",
          "type": "uint256"
        }
      ],
      "stateMutability": "nonpayable",
      "type": "function"
    },
    {
      "inputs": [],
      "name": "weiPerKobo",
      "outputs": [
        {
          "internalType": "uint256",
          "name": "",
          "type": "uint256"
        }
      ],
      "stateMutability": "view",
      "type": "function"
    },
    {
      "inputs": [
        {
          "internalType": "address payable",
          "name": "withdrawAddress",
          "type": "address"
        }
      ],
      "name": "withdrawStake",
      "outputs": [],
      "stateMutability": "nonpayable",
      "type": "function"
    },
    {
      "inputs": [
        {
          "internalType": "address payable",
          "name": "withdrawAddress",
          "type": "address"
        },
        {
          "internalType": "uint256",
          "name": "amount",
          "type": "uint256"
        }
      ],
      "name": "withdrawTo",
      "outputs": [],
      "stateMutability": "nonpayable",
      "type": "function"
    }
  ],
  "bytecode": "0x60a0604052620186a06003556113886004556006805460ff1916600117905534801561002a57600080fd5b5060405161202138038061202183398101604081905261004991610191565b806100533361009e565b6001600160a01b03166080526001805561006e6000336100ee565b6100987f7b765e0e932d348852a6f810bfa1ab891e259123f02db8cdcde614c570223357336100ee565b506101c1565b600080546001600160a01b038381166001600160a01b0319831681178455604051919092169283917f8be0079c531659141344cd1fd0a4f28419497f9722a3daafe3b4186f6b6457e09190a35050565b60008281526002602090815260408083206001600160a01b038516845290915290205460ff1661018d5760008281526002602090815260408083206001600160a01b03851684529091529020805460ff1916600117905561014c3390565b6001600160a01b0316816001600160a01b0316837f2f8788117e7eff1d82e926ec794901d17c78024a50270940304540a733656f0d60405160405180910390a45b5050565b6000602082840312156101a357600080fd5b81516001600160a01b03811681146101ba57600080fd5b9392505050565b608051611e0d61021460003960008181610561015281816106db0152818161077201528181610ce901528181610d7d01528181610df401528181610e7c01528181611128015261126b0152611e0d6000f3fe6080604052600436106101f95760003560e01c80638e44db781161010d578063bd90ff13116100a0578063d0e30db01161006f578063d0e30db01461061d578063d547741f14610625578063ef36f7dc14610645578063f2fde38b1461065a578063f465c77e1461067a57600080fd5b8063bd90ff13146105b8578063c23a5cea146105d2578063c399ec88146105f2578063c8884c4f1461060757600080fd5b8063a9a23409116100dc578063a9a234091461052f578063b0d691fe1461054f578063b9e205ae14610583578063bb9fe6bf146105a357600080fd5b80638e44db78146104ba57806391d14854146104da578063a217fddf146104fa578063a83149a11461050f57600080fd5b8063556b9c31116101905780637fa54d6e1161015f5780637fa54d6e14610390578063822f85cf146103fe578063863e76db1461041e5780638658fbd8146104355780638da5cb5b1461048857600080fd5b8063556b9c311461032f57806355d9b9c114610345578063715018a6146103655780637f1e2e301461037a57600080fd5b8063248a9ca3116101cc578063248a9ca3146102aa5780632f2ff15d146102da57806336568abe146102fa57806337d0b0af1461031a57600080fd5b806301ffc9a7146101fe5780630396cb6014610233578063092c5b3b14610248578063205c28781461028a575b600080fd5b34801561020a57600080fd5b5061021e61021936600461190d565b6106a8565b60405190151581526020015b60405180910390f35b610246610241366004611949565b6106b9565b005b34801561025457600080fd5b5061027c7f7b765e0e932d348852a6f810bfa1ab891e259123f02db8cdcde614c57022335781565b60405190815260200161022a565b34801561029657600080fd5b506102466102a536600461197b565b610744565b3480156102b657600080fd5b5061027c6102c53660046119a7565b60009081526002602052604090206001015490565b3480156102e657600080fd5b506102466102f53660046119c0565b6107b6565b34801561030657600080fd5b506102466103153660046119c0565b6107e0565b34801561032657600080fd5b5061027c610863565b34801561033b57600080fd5b5061027c60035481565b34801561035157600080fd5b506102466103603660046119a7565b610872565b34801561037157600080fd5b506102466108fd565b34801561038657600080fd5b5061027c60055481565b34801561039c57600080fd5b506103d96103ab3660046119f0565b600760205260009081526040902080546001909101546001600160401b03811690600160401b900460ff1683565b604080519384526001600160401b03909216602084015215159082015260600161022a565b34801561040a57600080fd5b506102466104193660046119a7565b610911565b34801561042a57600080fd5b5061027c6201518081565b34801561044157600080fd5b506104556104503660046119f0565b610996565b604080519586526020860194909452928401919091526001600160401b031660608301521515608082015260a00161022a565b34801561049457600080fd5b506000546001600160a01b03165b6040516001600160a01b03909116815260200161022a565b3480156104c657600080fd5b506102466104d5366004611a1b565b610a46565b3480156104e657600080fd5b5061021e6104f53660046119c0565b610a8f565b34801561050657600080fd5b5061027c600081565b34801561051b57600080fd5b5061024661052a366004611a38565b610aba565b34801561053b57600080fd5b5061024661054a366004611a66565b610bc4565b34801561055b57600080fd5b506104a27f000000000000000000000000000000000000000000000000000000000000000081565b34801561058f57600080fd5b5061024661059e3660046119a7565b610bde565b3480156105af57600080fd5b50610246610cdf565b3480156105c457600080fd5b5060065461021e9060ff1681565b3480156105de57600080fd5b506102466105ed3660046119f0565b610d56565b3480156105fe57600080fd5b5061027c610ddc565b34801561061357600080fd5b5061027c60045481565b610246610e67565b34801561063157600080fd5b506102466106403660046119c0565b610ec9565b34801561065157600080fd5b5061027c600181565b34801561066657600080fd5b506102466106753660046119f0565b610eee565b34801561068657600080fd5b5061069a610695366004611af6565b610f67565b60405161022a929190611b99565b60006106b382610f8a565b92915050565b6106c1610fbf565b604051621cb65b60e51b815263ffffffff821660048201527f00000000000000000000000000000000000000000000000000000000000000006001600160a01b031690630396cb609034906024016000604051808303818588803b15801561072857600080fd5b505af115801561073c573d6000803e3d6000fd5b505050505050565b61074c610fbf565b60405163040b850f60e31b81526001600160a01b038381166004830152602482018390527f0000000000000000000000000000000000000000000000000000000000000000169063205c287890604401600060405180830381600087803b15801561072857600080fd5b6000828152600260205260409020600101546107d181611019565b6107db8383611023565b505050565b6001600160a01b03811633146108555760405162461bcd60e51b815260206004820152602f60248201527f416363657373436f6e74726f6c3a2063616e206f6e6c792072656e6f756e636560448201526e103937b632b9903337b91039b2b63360891b60648201526084015b60405180910390fd5b61085f82826110a9565b5050565b600061086d611110565b905090565b61087a610fbf565b600081116108c15760405162461bcd60e51b815260206004820152601460248201527310d414134e881a5b9d985b1a5908189d5919d95d60621b604482015260640161084c565b60038190556040518181527f15bcc021d09d7e00640811df103aaa82e68c4db31dfebd67a1ad943c009330dd906020015b60405180910390a150565b610905610fbf565b61090f60006111aa565b565b610919610fbf565b60018110156109615760405162461bcd60e51b815260206004820152601460248201527321a828269d103130b21036bab63a34b83634b2b960611b604482015260640161084c565b60048190556040518181527fa90acbdd746ef41874bc9ae6411b03be1602b4c65be8e73a3d618a60da1d62e8906020016108f2565b6001600160a01b03811660009081526007602090815260408083208151606081018352815481526001909101546001600160401b03811693820193909352600160401b90920460ff161515908201528190819081908190816109f7826111fa565b8251909150610a0583611239565b15610a0e575060005b6000818311610a1e576000610a28565b610a288284611bd1565b6020850151604090950151939b929a50985092965090945092505050565b610a4e610fbf565b6006805460ff19168215159081179091556040519081527fa293d2dc06708900527472fd5930bbea29e11e1b4206f740e6ad311cd56ca117906020016108f2565b60009182526002602090815260408084206001600160a01b0393909316845291905290205460ff1690565b610ae47f7b765e0e932d348852a6f810bfa1ab891e259123f02db8cdcde614c57022335733610a8f565b80610af957506000546001600160a01b031633145b610b3c5760405162461bcd60e51b815260206004820152601460248201527321a828269d103737ba1031b7b73a3937b63632b960611b604482015260640161084c565b6001600160a01b038216600081815260076020526040902060018101805468ff00000000000000001916600160401b85151502179055907fd3cc4b0bce679d3024e75c5b58a91e524e25da1845032418c9c622a9d24b2dfd8380610ba1576001610ba5565b6004545b60408051921515835260208301919091520160405180910390a2505050565b610bcc611260565b610bd8848484846112d0565b50505050565b610c087f7b765e0e932d348852a6f810bfa1ab891e259123f02db8cdcde614c57022335733610a8f565b80610c1d57506000546001600160a01b031633145b610c605760405162461bcd60e51b815260206004820152601460248201527321a828269d103737ba1031b7b73a3937b63632b960611b604482015260640161084c565b60008111610ca55760405162461bcd60e51b81526020600482015260126024820152714350504d3a20696e76616c6964207261746560701b604482015260640161084c565b6005819055604080518281524260208201527fc8d1043f24843c0a1c9251fdc30017d84e87498fbcf232af9f86816b5e182bde91016108f2565b610ce7610fbf565b7f00000000000000000000000000000000000000000000000000000000000000006001600160a01b031663bb9fe6bf6040518163ffffffff1660e01b8152600401600060405180830381600087803b158015610d4257600080fd5b505af1158015610bd8573d6000803e3d6000fd5b610d5e610fbf565b60405163611d2e7560e11b81526001600160a01b0382811660048301527f0000000000000000000000000000000000000000000000000000000000000000169063c23a5cea90602401600060405180830381600087803b158015610dc157600080fd5b505af1158015610dd5573d6000803e3d6000fd5b5050505050565b6040516370a0823160e01b81523060048201526000907f00000000000000000000000000000000000000000000000000000000000000006001600160a01b0316906370a0823190602401602060405180830381865afa158015610e43573d6000803e3d6000fd5b505050506040513d601f19601f8201168201806040525081019061086d9190611be4565b60405163b760faf960e01b81523060048201527f00000000000000000000000000000000000000000000000000000000000000006001600160a01b03169063b760faf99034906024016000604051808303818588803b158015610dc157600080fd5b600082815260026020526040902060010154610ee481611019565b6107db83836110a9565b610ef6610fbf565b6001600160a01b038116610f5b5760405162461bcd60e51b815260206004820152602660248201527f4f776e61626c653a206e6577206f776e657220697320746865207a65726f206160448201526564647265737360d01b606482015260840161084c565b610f64816111aa565b50565b60606000610f73611260565b610f7e8585856113f3565b91509150935093915050565b60006001600160e01b03198216637965db0b60e01b14806106b357506301ffc9a760e01b6001600160e01b03198316146106b3565b6000546001600160a01b0316331461090f5760405162461bcd60e51b815260206004820181905260248201527f4f776e61626c653a2063616c6c6572206973206e6f7420746865206f776e6572604482015260640161084c565b610f648133611606565b61102d8282610a8f565b61085f5760008281526002602090815260408083206001600160a01b03851684529091529020805460ff191660011790556110653390565b6001600160a01b0316816001600160a01b0316837f2f8788117e7eff1d82e926ec794901d17c78024a50270940304540a733656f0d60405160405180910390a45050565b6110b38282610a8f565b1561085f5760008281526002602090815260408083206001600160a01b0385168085529252808320805460ff1916905551339285917ff6391f5c32d9c69d2a47ea670b442974b53935d1edc7fd64eb21e047a839171b9190a45050565b604051632943e70960e11b81523060048201526000907f00000000000000000000000000000000000000000000000000000000000000006001600160a01b031690635287ce129060240160a060405180830381865afa158015611177573d6000803e3d6000fd5b505050506040513d601f19601f8201168201806040525081019061119b9190611c5b565b516001600160701b0316919050565b600080546001600160a01b038381166001600160a01b0319831681178455604051919092169283917f8be0079c531659141344cd1fd0a4f28419497f9722a3daafe3b4186f6b6457e09190a35050565b60008060055460035461120d9190611cf8565b905060008360400151611221576001611225565b6004545b90506112318183611cf8565b949350505050565b60006201518082602001516001600160401b03166112579190611d0f565b42101592915050565b336001600160a01b037f0000000000000000000000000000000000000000000000000000000000000000161461090f5760405162461bcd60e51b815260206004820152601560248201527414d95b99195c881b9bdd08115b9d1c9e541bda5b9d605a1b604482015260640161084c565b60006112de838501856119f0565b6001600160a01b0381166000908152600760205260409020909150611303828261165f565b828160000160008282546113179190611d0f565b9091555050604080516060810182528254815260018301546001600160401b0381166020830152600160401b900460ff1615159181019190915260009061135d906111fa565b604080516060810182528454815260018501546001600160401b0381166020830152600160401b900460ff161515918101919091529091506000906113a2908361173a565b60408051878152602081018390529192506001600160a01b038616917fb3d8da13e2eec10930982ae94cc39cd56a1e686b864a50f632765647bdfe622b910160405180910390a25050505050505050565b60065460609060009060ff1661143c5760405162461bcd60e51b815260206004820152600e60248201526d4350504d3a20696e61637469766560901b604482015260640161084c565b6000600554116114835760405162461bcd60e51b815260206004820152601260248201527110d414134e881c985d19481b9bdd081cd95d60721b604482015260640161084c565b600061149260208701876119f0565b6001600160a01b03811660009081526007602052604090209091506114b7828261165f565b604080516060810182528254815260018301546001600160401b0381166020830152600160401b900460ff161515918101919091526000906114f8906111fa565b604080516060810182528454815260018501546001600160401b0381166020830152600160401b900460ff1615159181019190915290915060009061153d908361173a565b9050868110156115875760405162461bcd60e51b815260206004820152601560248201527410d414134e88189d5919d95d08195e18d959591959605a1b604482015260640161084c565b86611590611110565b10156115d25760405162461bcd60e51b815260206004820152601160248201527010d414134e881b1bddc819195c1bdcda5d607a1b604482015260640161084c565b604080516001600160a01b03861660208201520160408051601f198184030181529190529960009950975050505050505050565b6116108282610a8f565b61085f5761161d81611760565b611628836020611772565b604051602001611639929190611d22565b60408051601f198184030181529082905262461bcd60e51b825261084c91600401611d97565b604080516060810182528254815260018301546001600160401b0381166020830152600160401b900460ff1615159181019190915261169d90611239565b1561085f57600080825560018201805467ffffffffffffffff1916426001600160401b031690811791829055604080516060810182529384526020840191909152600160401b90910460ff161515908201526001600160a01b038316907f44d6260f5ec0b10b512a6eb8fe85d37150ad8b8e764284f84d5ac43d67869a2590611725906111fa565b60405190815260200160405180910390a25050565b8151600090821161174d575060006106b3565b82516117599083611bd1565b9392505050565b60606106b36001600160a01b03831660145b60606000611781836002611cf8565b61178c906002611d0f565b6001600160401b038111156117a3576117a3611bfd565b6040519080825280601f01601f1916602001820160405280156117cd576020820181803683370190505b509050600360fc1b816000815181106117e8576117e8611daa565b60200101906001600160f81b031916908160001a905350600f60fb1b8160018151811061181757611817611daa565b60200101906001600160f81b031916908160001a905350600061183b846002611cf8565b611846906001611d0f565b90505b60018111156118be576f181899199a1a9b1b9c1cb0b131b232b360811b85600f166010811061187a5761187a611daa565b1a60f81b82828151811061189057611890611daa565b60200101906001600160f81b031916908160001a90535060049490941c936118b781611dc0565b9050611849565b5083156117595760405162461bcd60e51b815260206004820181905260248201527f537472696e67733a20686578206c656e67746820696e73756666696369656e74604482015260640161084c565b60006020828403121561191f57600080fd5b81356001600160e01b03198116811461175957600080fd5b63ffffffff81168114610f6457600080fd5b60006020828403121561195b57600080fd5b813561175981611937565b6001600160a01b0381168114610f6457600080fd5b6000806040838503121561198e57600080fd5b823561199981611966565b946020939093013593505050565b6000602082840312156119b957600080fd5b5035919050565b600080604083850312156119d357600080fd5b8235915060208301356119e581611966565b809150509250929050565b600060208284031215611a0257600080fd5b813561175981611966565b8015158114610f6457600080fd5b600060208284031215611a2d57600080fd5b813561175981611a0d565b60008060408385031215611a4b57600080fd5b8235611a5681611966565b915060208301356119e581611a0d565b60008060008060608587031215611a7c57600080fd5b843560038110611a8b57600080fd5b935060208501356001600160401b03811115611aa657600080fd5b8501601f81018713611ab757600080fd5b80356001600160401b03811115611acd57600080fd5b876020828401011115611adf57600080fd5b949760209190910196509394604001359392505050565b600080600060608486031215611b0b57600080fd5b83356001600160401b03811115611b2157600080fd5b84016101608187031215611b3457600080fd5b95602085013595506040909401359392505050565b60005b83811015611b64578181015183820152602001611b4c565b50506000910152565b60008151808452611b85816020860160208601611b49565b601f01601f19169290920160200192915050565b604081526000611bac6040830185611b6d565b90508260208301529392505050565b634e487b7160e01b600052601160045260246000fd5b818103818111156106b3576106b3611bbb565b600060208284031215611bf657600080fd5b5051919050565b634e487b7160e01b600052604160045260246000fd5b80516001600160701b0381168114611c2a57600080fd5b919050565b8051611c2a81611a0d565b8051611c2a81611937565b805165ffffffffffff81168114611c2a57600080fd5b600060a0828403128015611c6e57600080fd5b5060405160a081016001600160401b0381118282101715611c9f57634e487b7160e01b600052604160045260246000fd5b604052611cab83611c13565b8152611cb960208401611c2f565b6020820152611cca60408401611c13565b6040820152611cdb60608401611c3a565b6060820152611cec60808401611c45565b60808201529392505050565b80820281158282048414176106b3576106b3611bbb565b808201808211156106b3576106b3611bbb565b7f416363657373436f6e74726f6c3a206163636f756e7420000000000000000000815260008351611d5a816017850160208801611b49565b7001034b99036b4b9b9b4b733903937b6329607d1b6017918401918201528351611d8b816028840160208801611b49565b01602801949350505050565b6020815260006117596020830184611b6d565b634e487b7160e01b600052603260045260246000fd5b600081611dcf57611dcf611bbb565b50600019019056fea2646970667358221220e85cb9eb28ebb6cc533c4e1ac6cc560ee993d399492bec0f66202388756d35d964736f6c634300081c0033",
  "linkReferences": {},
  "deployedLinkReferences": {}
}