{
  "_format": "hh-sol-artifact-1",
  "contractName": "CPPayPaymaster",
  "sourceName": "contracts/CPPayPaymaster.sol",
  "abi": [
    {
      "inputs": [
        {
          "internalType": "contract IEntryPoint",
          "name": "_entryPoint",
          "type": "address"
        }
      ],
      "stateMutability": "nonpayable",
      "type": "constructor"
    },
    {
      "anonymous": false,
      "inputs": [
        {
          "indexed": true,
          "internalType": "address",
          "name": "user",
          "type": "address"
        }
      ],
      "name": "DailyLimitReset",
      "type": "event"
    },
    {
      "anonymous": false,
      "inputs": [
        {
          "indexed": true,
          "internalType": "address",
          "name": "user",
          "type": "address"
        },
        {
          "indexed": false,
          "internalType": "uint256",
          "name": "gasAmount",
          "type": "uint256"
        },
        {
          "indexed": false,
          "internalType": "uint256",
          "name": "remainingDaily",
          "type": "uint256"
        }
      ],
      "name": "GasSponsored",
      "type": "event"
    },
    {
      "anonymous": false,
      "inputs": [
        {
          "indexed": true,
          "internalType": "address",
          "name": "previousOwner",
          "type": "address"
        },
        {
          "indexed": true,
          "internalType": "address",
          "name": "newOwner",
          "type": "address"
        }
      ],
      "name": "OwnershipTransferred",
      "type": "event"
    },
    {
      "anonymous": false,
      "inputs": [
        {
          "indexed": false,
          "internalType": "bool",
          "name": "active",
          "type": "bool"
        }
      ],
      "name": "PaymasterToggled",
      "type": "event"
    },
    {
      "anonymous": false,
      "inputs": [
        {
          "indexed": true,
          "internalType": "address",
          "name": "user",
          "type": "address"
        }
      ],
      "name": "UserVerified",
      "type": "event"
    },
    {
      "inputs": [],
      "name": "DAILY_GAS_LIMIT",
      "outputs": [
        {
          "internalType": "uint256",
          "name": "",
          "type": "uint256"
        }
      ],
      "stateMutability": "view",
      "type": "function"
    },
    {
      "inputs": [],
      "name": "ONE_DAY",
      "outputs": [
        {
          "internalType": "uint256",
          "name": "",
          "type": "uint256"
        }
      ],
      "stateMutability": "view",
      "type": "function"
    },
    {
      "inputs": [
        {
          "internalType": "uint32",
          "name": "unstakeDelaySec",
          "type": "uint32"
        }
      ],
      "name": "addStake",
      "outputs": [],
      "stateMutability": "payable",
      "type": "function"
    },
    {
      "inputs": [],
      "name": "deposit",
      "outputs": [],
      "stateMutability": "payable",
      "type": "function"
    },
    {
      "inputs": [],
      "name": "entryPoint",
      "outputs": [
        {
          "internalType": "contract IEntryPoint",
          "name": "",
          "type": "address"
        }
      ],
      "stateMutability": "view",
      "type": "function"
    },
    {
      "inputs": [],
      "name": "getDeposit",
      "outputs": [
        {
          "internalType": "uint256",
          "name": "",
          "type": "uint256"
        }
      ],
      "stateMutability": "view",
      "type": "function"
    },
    {
      "inputs": [
        {
          "internalType": "address",
          "name": "user",
          "type": "address"
        }
      ],
      "name": "getRemainingDailyGas",
      "outputs": [
        {
          "internalType": "uint256",
          "name": "",
          "type": "uint256"
        }
      ],
      "stateMutability": "view",
      "type": "function"
    },
    {
      "inputs": [],
      "name": "owner",
      "outputs": [
        {
          "internalType": "address",
          "name": "",
          "type": "address"
        }
      ],
      "stateMutability": "view",
      "type": "function"
    },
    {
      "inputs": [],
      "name": "paymasterActive",
      "outputs": [
        {
          "internalType": "bool",
          "name": "",
          "type": "bool"
        }
      ],
      "stateMutability": "view",
      "type": "function"
    },
    {
      "inputs": [],
      "name": "paymasterDeposit",
      "outputs": [
        {
          "internalType": "uint256",
          "name": "",
          "type": "uint256"
        }
      ],
      "stateMutability": "view",
      "type": "function"
    },
    {
      "inputs": [
        {
          "internalType": "enum IPaymaster.PostOpMode",
          "name": "mode",
          "type": "uint8"
        },
        {
          "internalType": "bytes",
          "name": "context",
          "type": "bytes"
        },
        {
          "internalType": "uint256",
          "name": "actualGasCost",
          "type": "uint256"
        }
      ],
      "name": "postOp",
      "outputs": [],
      "stateMutability": "nonpayable",
      "type": "function"
    },
    {
      "inputs": [],
      "name": "renounceOwnership",
      "outputs": [],
      "stateMutability": "nonpayable",
      "type": "function"
    },
    {
      "inputs": [
        {
          "internalType": "bool",
          "name": "active",
          "type": "bool"
        }
      ],
      "name": "togglePaymaster",
      "outputs": [],
      "stateMutability": "nonpayable",
      "type": "function"
    },
    {
      "inputs": [
        {
          "internalType": "address",
          "name": "newOwner",
          "type": "address"
        }
      ],
      "name": "transferOwnership",
      "outputs": [],
      "stateMutability": "nonpayable",
      "type": "function"
    },
    {
      "inputs": [],
      "name": "unlockStake",
      "outputs": [],
      "stateMutability": "nonpayable",
      "type": "function"
    },
    {
      "inputs": [
        {
          "internalType": "address",
          "name": "",
          "type": "address"
        }
      ],
      "name": "userGasData",
      "outputs": [
        {
          "internalType": "uint256",
          "name": "gasUsedToday",
          "type": "uint256"
        },
        {
          "internalType": "uint256",
          "name": "lastResetTime",
          "type": "uint256"
        },
        {
          "internalType": "bool",
          "name": "isVerified",
          "type": "bool"
        }
      ],
      "stateMutability": "view",
      "type": "function"
    },
    {
      "inputs": [
        {
          "components": [
            {
              "internalType": "address",
              "name": "sender",
              "type": "address"
            },
            {
              "internalType": "uint256",
              "name": "nonce",
              "type": "uint256"
            },
            {
              "internalType": "bytes",
              "name": "initCode",
              "type": "bytes"
            },
            {
              "internalType": "bytes",
              "name": "callData",
              "type": "bytes"
            },
            {
              "internalType": "uint256",
              "name": "callGasLimit",
              "type": "uint256"
            },
            {
              "internalType": "uint256",
              "name": "verificationGasLimit",
              "type": "uint256"
            },
            {
              "internalType": "uint256",
              "name": "preVerificationGas",
              "type": "uint256"
            },
            {
              "internalType": "uint256",
              "name": "maxFeePerGas",
              "type": "uint256"
            },
            {
              "internalType": "uint256",
              "name": "maxPriorityFeePerGas",
              "type": "uint256"
            },
            {
              "internalType": "bytes",
              "name": "paymasterAndData",
              "type": "bytes"
            },
            {
              "internalType": "bytes",
              "name": "signature",
              "type": "bytes"
            }
          ],
          "internalType": "struct UserOperation",
          "name": "userOp",
          "type": "tuple"
        },
        {
          "internalType": "bytes32",
          "name": "userOpHash",
          "type": "bytes32"
        },
        {
          "internalType": "uint256",
          "name": "maxCost",
          "type": "uint256"
        }
      ],
      "name": "validatePaymasterUserOp",
      "outputs": [
        {
          "internalType": "bytes",
          "name": "context",
          "type": "bytes"
        },
        {
          "internalType": "uint256",
          "name": "validationData",
          "type": "uint256"
        }
      ],
      "stateMutability": "nonpayable",
      "type": "function"
    },
    {
      "inputs": [],
      "name": "verifiedUserMultiplier",
      "outputs": [
        {
          "internalType": "uint256",
          "name": "",
          "type": "uint256"
        }
      ],
      "stateMutability": "view",
      "type": "function"
    },
    {
      "inputs": [
        {
          "internalType": "address",
          "name": "user",
          "type": "address"
        }
      ],
      "name": "verifyUser",
      "outputs": [],
      "stateMutability": "nonpayable",
      "type": "function"
    },
    {
      "inputs": [
        {
          "internalType": "address payable",
          "name": "withdrawAddress",
          "type": "address"
        }
      ],
      "name": "withdrawStake",
      "outputs": [],
      "stateMutability": "nonpayable",
      "type": "function"
    },
    {
      "inputs": [
        {
          "internalType": "address payable",
          "name": "withdrawAddress",
          "type": "address"
        },
        {
          "internalType": "uint256",
          "name": "amount",
          "type": "uint256"
        }
      ],
      "name": "withdrawTo",
      "outputs": [],
      "stateMutability": "nonpayable",
      "type": "function"
    }
  ],
  "bytecode": "0x60a060405260026003556004805460ff1916600117905534801561002257600080fd5b50604051611255380380611255833981016040819052610041916100b1565b8061004b33610061565b6001600160a01b031660805250600180556100e1565b600080546001600160a01b038381166001600160a01b0319831681178455604051919092169283917f8be0079c531659141344cd1fd0a4f28419497f9722a3daafe3b4186f6b6457e09190a35050565b6000602082840312156100c357600080fd5b81516001600160a01b03811681146100da57600080fd5b9392505050565b6080516111216101346000396000818161028e01528181610417015281816104ae015281816105e80152818161074a015281816107de01528181610855015281816108e20152610a8501526111216000f3fe60806040526004361061012a5760003560e01c8063a9a23409116100ab578063c23a5cea1161006f578063c23a5cea1461030f578063c399ec881461032f578063d049ef0014610344578063d0e30db01461039f578063f2fde38b146103a7578063f465c77e146103c757600080fd5b8063a9a234091461025c578063b0d691fe1461027c578063b2757b64146102b0578063bb9fe6bf146102d0578063bd90ff13146102e557600080fd5b806337d0b0af116100f257806337d0b0af146101c95780634d813120146101de578063715018a6146101fe578063863e76db146102135780638da5cb5b1461022a57600080fd5b80630396cb601461012f5780630ea9904c146101445780631e5a625914610173578063205c2878146101895780632ad59123146101a9575b600080fd5b61014261013d366004610db2565b6103f5565b005b34801561015057600080fd5b50610160670de0b6b3a764000081565b6040519081526020015b60405180910390f35b34801561017f57600080fd5b5061016060035481565b34801561019557600080fd5b506101426101a4366004610de4565b610480565b3480156101b557600080fd5b506101606101c4366004610e10565b6104f2565b3480156101d557600080fd5b506101606105d0565b3480156101ea57600080fd5b506101426101f9366004610e10565b61066a565b34801561020a57600080fd5b506101426106c3565b34801561021f57600080fd5b506101606201518081565b34801561023657600080fd5b506000546001600160a01b03165b6040516001600160a01b03909116815260200161016a565b34801561026857600080fd5b50610142610277366004610e2d565b6106d7565b34801561028857600080fd5b506102447f000000000000000000000000000000000000000000000000000000000000000081565b3480156102bc57600080fd5b506101426102cb366004610ecd565b6106f1565b3480156102dc57600080fd5b50610142610740565b3480156102f157600080fd5b506004546102ff9060ff1681565b604051901515815260200161016a565b34801561031b57600080fd5b5061014261032a366004610e10565b6107b7565b34801561033b57600080fd5b5061016061083d565b34801561035057600080fd5b5061038261035f366004610e10565b600260208190526000918252604090912080546001820154919092015460ff1683565b60408051938452602084019290925215159082015260600161016a565b6101426108cd565b3480156103b357600080fd5b506101426103c2366004610e10565b61092f565b3480156103d357600080fd5b506103e76103e2366004610eea565b6109ad565b60405161016a929190610f3e565b6103fd6109d0565b604051621cb65b60e51b815263ffffffff821660048201527f00000000000000000000000000000000000000000000000000000000000000006001600160a01b031690630396cb609034906024016000604051808303818588803b15801561046457600080fd5b505af1158015610478573d6000803e3d6000fd5b505050505050565b6104886109d0565b60405163040b850f60e31b81526001600160a01b038381166004830152602482018390527f0000000000000000000000000000000000000000000000000000000000000000169063205c287890604401600060405180830381600087803b15801561046457600080fd5b6001600160a01b0381166000908152600260208181526040808420815160608101835281548152600182015493810184905293015460ff1615159083015261053e906201518090610fa9565b421061057757806040015161055b57670de0b6b3a7640000610570565b60035461057090670de0b6b3a7640000610fc2565b9392505050565b6000816040015161059057670de0b6b3a76400006105a5565b6003546105a590670de0b6b3a7640000610fc2565b9050808260000151106105bc575060009392505050565b81516105c89082610fd9565b949350505050565b604051632943e70960e11b81523060048201526000907f00000000000000000000000000000000000000000000000000000000000000006001600160a01b031690635287ce129060240160a060405180830381865afa158015610637573d6000803e3d6000fd5b505050506040513d601f19601f8201168201806040525081019061065b9190611034565b516001600160701b0316919050565b6106726109d0565b6001600160a01b0381166000818152600260208190526040808320909101805460ff19166001179055517fa6625d2d26e786e2f473111bea4b2fcdbbf1863d883a2359989ce3a103d2972a9190a250565b6106cb6109d0565b6106d56000610a2a565b565b6106df610a7a565b6106eb84848484610aea565b50505050565b6106f96109d0565b6004805460ff19168215159081179091556040519081527f12b63397b781e528e1d69c47d9b4ae364834a17e6dffc73cc6881c79fcdfdd4e9060200160405180910390a150565b6107486109d0565b7f00000000000000000000000000000000000000000000000000000000000000006001600160a01b031663bb9fe6bf6040518163ffffffff1660e01b8152600401600060405180830381600087803b1580156107a357600080fd5b505af11580156106eb573d6000803e3d6000fd5b6107bf6109d0565b60405163611d2e7560e11b81526001600160a01b0382811660048301527f0000000000000000000000000000000000000000000000000000000000000000169063c23a5cea90602401600060405180830381600087803b15801561082257600080fd5b505af1158015610836573d6000803e3d6000fd5b5050505050565b6040516370a0823160e01b81523060048201526000907f00000000000000000000000000000000000000000000000000000000000000006001600160a01b0316906370a0823190602401602060405180830381865afa1580156108a4573d6000803e3d6000fd5b505050506040513d601f19601f820116820180604052508101906108c891906110d2565b905090565b60405163b760faf960e01b81523060048201527f00000000000000000000000000000000000000000000000000000000000000006001600160a01b03169063b760faf99034906024016000604051808303818588803b15801561082257600080fd5b6109376109d0565b6001600160a01b0381166109a15760405162461bcd60e51b815260206004820152602660248201527f4f776e61626c653a206e6577206f776e657220697320746865207a65726f206160448201526564647265737360d01b60648201526084015b60405180910390fd5b6109aa81610a2a565b50565b606060006109b9610a7a565b6109c4858585610bb7565b91509150935093915050565b6000546001600160a01b031633146106d55760405162461bcd60e51b815260206004820181905260248201527f4f776e61626c653a2063616c6c6572206973206e6f7420746865206f776e65726044820152606401610998565b600080546001600160a01b038381166001600160a01b0319831681178455604051919092169283917f8be0079c531659141344cd1fd0a4f28419497f9722a3daafe3b4186f6b6457e09190a35050565b336001600160a01b037f000000000000000000000000000000000000000000000000000000000000000016146106d55760405162461bcd60e51b815260206004820152601560248201527414d95b99195c881b9bdd08115b9d1c9e541bda5b9d605a1b6044820152606401610998565b600080610af984860186610de4565b6001600160a01b03821660009081526002602052604081208054939550919350909185918391610b2a908490610fa9565b90915550506002810154670de0b6b3a76400009060ff1615610b5657600354610b539082610fc2565b90505b8154600090610b659083610fd9565b60408051888152602081018390529192506001600160a01b038716917fb3d8da13e2eec10930982ae94cc39cd56a1e686b864a50f632765647bdfe622b910160405180910390a2505050505050505050565b60045460609060009060ff16610c045760405162461bcd60e51b81526020600482015260126024820152715061796d617374657220696e61637469766560701b6044820152606401610998565b6000610c136020870187610e10565b6001600160a01b0381166000908152600260205260409020600181015491925090610c42906201518090610fa9565b4210610c855760008082554260018301556040516001600160a01b038416917fac87fc0faf18aabee41a3ff0d626ce20d51e373e68e2054f991fce5bd7664d8991a25b6002810154670de0b6b3a76400009060ff1615610cac57600354610ca99082610fc2565b90505b8154600090610cbb9083610fd9565b905086811015610d0d5760405162461bcd60e51b815260206004820152601860248201527f4461696c7920676173206c696d697420657863656564656400000000000000006044820152606401610998565b86610d166105d0565b1015610d645760405162461bcd60e51b815260206004820152601960248201527f5061796d6173746572206465706f73697420746f6f206c6f77000000000000006044820152606401610998565b604080516001600160a01b038616602082015290810188905260600160408051808303601f190181529190529960009950975050505050505050565b63ffffffff811681146109aa57600080fd5b600060208284031215610dc457600080fd5b813561057081610da0565b6001600160a01b03811681146109aa57600080fd5b60008060408385031215610df757600080fd5b8235610e0281610dcf565b946020939093013593505050565b600060208284031215610e2257600080fd5b813561057081610dcf565b60008060008060608587031215610e4357600080fd5b843560038110610e5257600080fd5b9350602085013567ffffffffffffffff811115610e6e57600080fd5b8501601f81018713610e7f57600080fd5b803567ffffffffffffffff811115610e9657600080fd5b876020828401011115610ea857600080fd5b949760209190910196509394604001359392505050565b80151581146109aa57600080fd5b600060208284031215610edf57600080fd5b813561057081610ebf565b600080600060608486031215610eff57600080fd5b833567ffffffffffffffff811115610f1657600080fd5b84016101608187031215610f2957600080fd5b95602085013595506040909401359392505050565b604081526000835180604084015260005b81811015610f6c5760208187018101516060868401015201610f4f565b506000606082850101526060601f19601f8301168401019150508260208301529392505050565b634e487b7160e01b600052601160045260246000fd5b80820180821115610fbc57610fbc610f93565b92915050565b8082028115828204841417610fbc57610fbc610f93565b81810381811115610fbc57610fbc610f93565b80516001600160701b038116811461100357600080fd5b919050565b805161100381610ebf565b805161100381610da0565b805165ffffffffffff8116811461100357600080fd5b600060a082840312801561104757600080fd5b5060405160a0810167ffffffffffffffff8111828210171561107957634e487b7160e01b600052604160045260246000fd5b60405261108583610fec565b815261109360208401611008565b60208201526110a460408401610fec565b60408201526110b560608401611013565b60608201526110c66080840161101e565b60808201529392505050565b6000602082840312156110e457600080fd5b505191905056fea26469706673582212209437a01c4c550db276139717cd1691fa9e784d1a7ca24918ea6876fa4e143c3264736f6c634300081c0033",
  "linkReferences": {},
  "deployedLinkReferences": {}
}